:020000040000fa
:10000000f83f0020591a0000f7140000331f0000c9
:1000100000000000000000000000000000000000e0
:10002000000000000000000000000000cf0d0000f4
:100030000000000000000000cf0d0000c9200000fb
:10004000cf0d0000cf0d0000cf0d0000cf0d000040
:10005000cf0d000081200000cf0d0000cf0d00006b
:10006000cf0d0000cf0d0000cf0d0000cf0d000020
:10007000cf0d0000cf0d0000cf0d0000cf0d000010
:10008000cf0d0000cf0d0000cf0d0000cf0d000000
:10009000cf0d00000000000000000000cf0d0000a8
:1000a000cf0d0000cf0d0000cf0d0000cf0d0000e0
:0800b00000000000cf0d00006c
:020000040000fa
:1000b800f8b5c046f8bc08bc9e467047391a00001f
:1000c800f8b5c046f8bc08bc9e467047111a000037
:020000040000fa
:1000d800f0b59db016930b6854680a938b68179017
:1000e8000b930b6910911a93cb684d6804931368ae
:1000f8002100089300220023089801f0b7fd00288a
:100108000bd10a9b5b0737d408230a9a1a400b9b2a
:100118000c9205930cd0202303e080231b06e418df
:100128002d23049a13700b9b013b059301230c9319
:100138000c99049a8c4608996244630011925b08f2
:10014800894a00291ad1934218d1169b874c413b02
:100158002100192b00d9211d119802f0f9f8201d52
:1001680002f0bdf80a9b0200009304990b9b1798b4
:1001780001f0faf91db0f0bd2b23d2e7934203d862
:1001880011d1089b002b0ed0169b784c413b2100c7
:10019800192b06d80831119802f0daf820000c3033
:1001a800dee70c31f7e7002200230898210001f070
:1001b80045fe00266e4f00282fd000230393169883
:1001c80002f0a6f8c3b20d93002d00dad4e106932d
:1001d800672b00d0d9e0002d00d1c9e1039b04337f
:1001e80003db039bab4200dacae06523dee0039b36
:1001f800069e079f0133039300225e4b30003900af
:1002080000f038fd089a23000690079101f00efdd2
:100218000028ecd00023069326e00390ece7039b2c
:100228001a00554b9a4214da069b002b11d1002272
:10023800524b0898210000f01dfd504b08900c000f
:1002480030003900002200f015fd012306000f00e0
:100258000693484b30003900002200f0d7fe060014
:100268000f00039b013b039332003b0008982100d9
:1002780001f0fcfc0028d2d1a1e708960997069b5b
:10028800039c652b00d004e1002402e1089a099b35
:100298000e98129900f0bafe00f01aff149015910a
:1002a80001f098fd10220a9b1340034323d10d9bb4
:1002b800672b20d1002c2bda0135802000068446dc
:1002c80012990e9a61440b001498159900920193a3
:1002d800089a099b02f014f880231b06cb180e908d
:1002e8001293089809990022224b00f08ffe013cd6
:1002f80008900991d2e0002e0ad1002c08da059b5b
:10030800049a013b05932e23139901375354013660
:10031800ea193b009446302102e0049ad154013393
:100328009c45fad16246059b0137013b5b1b05934f
:10033800049b30307f1998540025bee7039831009c
:1003480000f06aff049b3031013c195503983100d5
:1003580000f018ff059b0390013b0593cae0049a3f
:10036800125c1a540138f6e00000f07fc622000043
:100378000000f03f00002440d4feffff000050437f
:10038800039b002b11da66230693069b0135662b27
:100398000dd1039b002b03da00230026794f03932a
:1003a8000d9b672b01d0039bed1866230693089bd2
:1003b8000e960f9712930023139414930e9a0f9b83
:1003c8001298139900f022fe00f082fe18901991fd
:1003d80001f000fd1b908020000684461399129ab4
:1003e80061440b0018981999009201930e9a0f9b7b
:1003f80001f086ff80231b06cb18129013930e98ea
:100408000f99614b002200f001fe149b0e900f9192
:10041800013314939d42d1d100225c4b00f02afc99
:100428000e900f9102000b001298139901f01efc18
:1004380000280ad10e9a0f9b1298139901f0fefc1e
:10044800002806d01b9bdb0703d4002200230e9252
:100458000f930e9a0f9b0898210000f02bfa0022a8
:100468000e901291484b3000390000f003fc0e9ab0
:10047800129b0890099101f075fb002800d1fce659
:10048800039b01330393069b662b00d0f7e6039c7e
:100498000135631b00252e000c9f1893189b13979a
:1004a800a34206d0109b1b691493053b9f4200d2c0
:1004b800ece6002e07d10a9bdb0604d52e23049a0e
:1004c8001399013753540025049bdb1908931d70b9
:1004d800069b652b31d11a9b5c1e049b1d55039b03
:1004e800ab4202da5b420393013503261a9bf31ae7
:1004f8000d930736039b002b00d01fe70d9b1b199c
:10050800002b00dd1ae7621e2d23002d00d1023bcf
:100518000499023c8b54169b413b192b01d8452367
:100528000693049b1919069b0b70059b023b0593c8
:10053800a74202da089801f00bff03230a9a134036
:10054800022b13d1059b002b10dd049801f0c7fe88
:10055800049b059a9b180c9a824200dcffe6059ad8
:100568003021119801f0b3fe00230b930498f7e5ae
:10057800012533e6062531e60d9b672bfad0069355
:10058800062502e70000f03f000024400000144068
:020000040000fa
:100598000023f0b506001500afb005910193059949
:1005a8000b78002b00d10fe101235b420a930eabbd
:1005b80000240c93802309940b940d930b5d002b5e
:1005c80001d0252b2ad1002c06d02200300001f0c2
:1005d800cbfb059b1b190593059b1a78252a00d090
:1005e800e7e0013302930593022310219c46082774
:1005f800059803782b2b1bd025d8202b1bd0232b19
:100608001dd02a2b2ad001f051fb0b90059b1a789c
:10061800303a092a33d801330593f7e70134cde797
:100628000122099b80180393134309930590dfe780
:100638000423099a0ee0099b03933b430be0099bb3
:1006480003930b4307e02d2bead0302bd9d1624618
:10065800099b0393134309930130e7e72b680130a3
:100668001a1d1b6805902a600b93002b07da099a5c
:100678005b420392012203990b934a400992099b1a
:10068800da0702d5022293430993059b1a782e2a8a
:100698000ed10022581c0a9205905a782a2a28d18d
:1006a800023305932b681a1d1b682a6003930a936b
:1006b80005a801f0a9fb059b0700187801f028fea2
:1006c800692800d183e035dc632800d1d6e01bdc43
:1006d800252800d1dfe0612859d0252306aa137008
:1006e800029b0593002309930b93013b0a93023362
:1006f800b2e001f0dbfa0a90059b1a78303a092a31
:10070800d6d801330593f7e7642860d06728e4dc7e
:100718002a00390006a801f035fc002800d1a9e01c
:10072800059b09a95a1c05921b7806aa3000fff7f9
:10073800cffc3de0702800d17de016dc6e2800d1aa
:1007480091e06f28c9d12b000022390006a800f0db
:100758006dfd002800d18de0059b06aa013309a98b
:100768003000059301f00ffe22e0752840d078286c
:100778004fd07328b1d1802f00d07be0059b2a6829
:1007880001330593131d2b601268002364e02a00cf
:10079800390006a801f0f6fb002800d16ae0059ba5
:1007a80009a95a1c05921b7806aa300001f0edfd34
:1007b8002418019b1c19a34200dc74e04f223b4b18
:1007c8001a6001235b42019301982fb0f0bd2b0002
:1007d8000122390006a800f029fd00284ad0059b0f
:1007e80006aa013309a93000059301f0ccfddfe723
:1007f8002b000022390006a800f018fd002839d087
:10080800059b06aa013309a93000059301f0bbfd39
:10081800cee72b000022390006a800f007fd0028cb
:1008280028d0059b5a1c05921b7806aa09a93000f6
:1008380001f0abfdbce72b000022f02106a800f078
:10084800f5fc002816d0059b079a01330593069bf3
:10085800134306d1164a163209a9300001f036f8ba
:10086800a6e77823e1e7019b39001a1906a82b00af
:1008780000f0b6fe059b013305939ae7802ff9d166
:10088800059b013305932b681a1d1b682a6006aa6d
:1008980013700123e0e7802fecd1059b06aa0133f2
:1008a80005931070f5e7019479e6c046a807002083
:0408b8008c2100008f
:020000040000fa
:1008bc00f0b40125ed070f005f405ad48b4200d1f4
:1008cc00824205d950404240504059404b4059401b
:1008dc004e18760ddf187f0d3bd0741c640529d0a3
:1008ec00f41b352c26d80e0ddb022b43db0ac90278
:1008fc002943c9121700202c1ed2e741e240574071
:10090c00e3415a40a340e3405a4000248018594127
:10091c000ad3b21c520521d0c207012f6241170025
:10092c004008cb0718434908013636054208af4149
:10093c0060417141f0bc7047203c06d01f00e7417c
:10094c00e3405f400024012a6741c0186141ebd3aa
:10095c00dfe7002eeed129400020ebe70136310510
:10096c000020e7e7e742e5d10020c143090dc904a7
:10097c00e0e76b400e00871a9e4104d26e40c01b0c
:10098c00b141d21973414e18df18ac0ae642e9d2d4
:10099c00760d7f0d31d0f41b362ccbd8b4460e0d12
:1009ac00db022b43db0ac9022943c90a012c32d8ca
:1009bc0004d1d4075208df073a435b08ef0a6442bc
:1009cc00904199411ed0002239424dd12419404109
:1009dc0049410124394204d10134001849413942ba
:1009ec00fad06246a24204d9361b013e360589195b
:1009fc00a0e7f10ac90700209ce736429ad10020f3
:100a0c00002197e70200224394d0b842ded20100c5
:100a1c0020002024e3d1202c13dd203ce2411700e0
:100a2c00a240e2405740e3415a40a340e3405a40c1
:100a3c00012fbf410137174300227c42984191415d
:100a4c000ce01700e741e2405740e3415a40a34015
:100a5c00e3405a407c429041994100220f0303d25b
:100a6c00013e241940414941013e36054708ac413d
:080a7c0050417141f0bc7047cc
:020000040000fa
:100a8400680700201c0000000000000098070020f8
:100a940004000000000000009c0700200400000087
:100aa40000000000840700200c000000000000008b
:100ab400a00700200400000000000000f806002049
:100ac400500000000000000018060020780000001c
:100ad400010000002806002020060020280600202f
:100ae40000000000000000002500000008000020b5
:100af40000040000000000000000000000000000ee
:100b040000000000000000000000000000000000e1
:100b14000000000089230000000000000000000025
:100b24000000000000000000b516000000000000f6
:100b340000000000000000000000000000000000b1
:100b44000000000000000000000000000000002081
:100b540008040000000000004807002020000000f6
:100b6400010000000100000003000000000000007c
:100b74000000000000000000000000000000000071
:100b840090070020900700200800000000000000eb
:100b9400a40700200400000000000000a8070020b3
:100ba40004000000000000000804002010020000ff
:100bb4000000000090060020680000000100000012
:100bc400010000000300000000000000000000001d
:100bd40000000000000000000000000019170000e1
:100be4000000000000000000000000006523000079
:100bf400532200000000000000000000000000007c
:100c040000000000000000000000000000000000e0
:100c140000000000000000000000000000000000d0
:100c24000000000000000000ac07002004000000e9
:100c34000000000000000000000000002222222228
:020000040000fa
:100c440008d1002806d1f54204d801d3002a01d1e5
:100c54006d0d09d10020c143090dc904f0bdf9d1be
:100c64001242f7d1640df5d00020c143490549086b
:100c7400a6e000206146f0bdf0b50127ff070e0095
:100c84005e403e40b446be0a4c18dd18f442d7d24a
:100c9400f542e4d2640decd06d0dead06419c902ba
:100ca4003943460dc0023143db023b43db0a10b437
:100cb4008e4685b297b26f43140c6c433e0ca41954
:100cc400260c2404bfb227439cb26c43a419190c0c
:100cd4006943250ca4b249190d04090c6419000ccc
:100ce40095b245433e0c76193743bfb2360c150c0a
:100cf4004543ad19a6b2240cad192e0437432e0c6e
:100d040036199db24543ad19acb22e0c89191d0c90
:100d140045436d182e04290c3443704680b295b2b5
:100d240045433e0c76193743bfb2360c150c454388
:100d3400ad19a6b2ad19240c2e0437432e0c361966
:100d44009db24543ad19acb22e0c89191d0c454317
:100d54006d182e043443290c75462d0c90b268434b
:100d64003e0c80190604bfb23e43070ca0b23f18e4
:100d7400120c6a43d019020c80b2240ca4189ab243
:100d84006a43121914042043120c89181b0c6b4378
:100d9400c91810bc01273d05294203d1b6194041a9
:100da4004941013cff077d0d013d641b0bdb6d00d8
:100db400ac4209da240500254208be41684161417c
:0a0dc40066463143f0bd54e74ee7e8
:020000040000fa
:020dce00fee73e
:020000040000fa
:100dd000f0b587b0039003a800f08cff002802da7a
:100de000002007b0f0bd039b1b095d1e202d09d913
:100df0004f49023b4f4a8b4224d8db08d318043baf
:100e00001d7801352a000120002101f00bfa002491
:100e100043428c4100930194474f00983a687b68a5
:100e20001040020001990b401a433fd1039b05a8d3
:100e30001033059301f002fa002809d10c223f4b30
:100e40001a60cee7db09d318043b1d781135d9e7ca
:100e50003b490c68a04206d0059b0400103b05935b
:100e60000123103483600125059be2180a602b439f
:100e7000083a083c28c26360002cb1d0200001f081
:100e800011f800280bd023686168ab43e31a5a6855
:100e9000aa4352185a606168a94362501c0020009e
:100ea000039901f0d9f8200008309ae7214a254932
:100eb0003c32002831d1584203404b43db0ed65c14
:100ec0002036300001f044f9731cdb00fc58083b6d
:100ed000fb189c42a0d0272e25dd0235ae4201dc56
:100ee0003f2e20d101226368039f9343dd1b28001e
:100ef000009300f01fff864215d1e268a168e31954
:100f0000da60996093609a68d360012217431f608a
:100f10005d60009be5506760c1e7434203404b437f
:100f2000db0ed65ccde73100200000f023fdb6e7f4
:100f3000ff010000d417000010040020a8070020c3
:080f40000804002029e66b07fc
:020000040000fa
:100f4800f7b5002858d00838436801221e00964398
:100f580085192a680400934200d0ffde01276b68d8
:100f6800226813403b420ed1200000f097ff002872
:100f780043d1280000f0c2ff0028f0d06b68bb43c3
:100f8800f618ed18ebe73b003343636030002b6045
:100f980000f0ccfe019001f0d7f86b68226813408e
:100fa8003b42e1d0184b019a1868596801f02af9b8
:100fb800384212d1019a0120002101f02ff90b00cb
:100fc800002804d0104a126802430f480260002b20
:100fd80003d00d4a53680b435360019b0a4a0133ff
:100fe800db00d3181a005b68083a66602e60e3607d
:100ff800a260d460e3689c60f7bd2368bb43e41a31
:0c1008006368bb43f618b4e71004002036
:020000040000fa
:10101400f0b40125ed070c005c402c40a446ae0a58
:101024004c18df18f4423dd2f74245d2640d4cd03f
:101034007f0d3cd0e41bc9022943cf0adb022b43ba
:10104400db0a0600b61a9f4104d2013cb6197f415f
:10105400b6185f416812800d241838dd00188442e8
:1010640025d8e80c0021b6197f41b61a9f4103d355
:1010740040414941f7d304e0b6185f4100184941a3
:10108400f1d32405b6197f41b61a9f4105d33743de
:10109400c20717430022012f5041614162461143a8
:1010a400f0bc70470cd100280ad1f74208d20020c6
:1010b400c143490d0905f1e7002a01d1f74206d0e1
:1010c4000020c143090dc904eae77f0df8d00020d0
:0410d4006146e5e7a5
:020000040000fa
:1010d8004b005b0d264af0b55c1e944238d8254a71
:1010e8009e1825d4332e22dc234a9b1827d4234a62
:1010f800da400700214b9743f3403c000f000240c1
:101108009f4319403d000a430fd0002f0dda2023da
:101118005b42f11824d480204003c840020080219b
:101128004903f1400b00a4185d4120002900f0bddf
:101138000020002901db0021f9e71149f7e7202207
:101148000e4b921b934001225242f2401a43d0e7c1
:10115800002becd10022c90fcb0710001900e6e7dd
:1011680020218020891b400388400200d7e7c04621
:10117800fd07000001fcffffe1fbffffffff0f0081
:041188000000f0bfb4
:020000040000fa
:10118c00002941d010b4041c4c40a4460123002279
:10119c00002900d54942002800d5404288422cd372
:1011ac0001242407a14204d2814202d209011b016d
:1011bc00f8e7e400a14204d2814202d249005b006c
:1011cc00f8e7884201d3401a1a434c08a04202d3d4
:1011dc00001b5c0822438c08a04202d3001b9c0815
:1011ec002243cc08a04202d3001bdc082243002877
:1011fc0003d01b0901d00909e3e7101c6446002c3d
:10120c0000d5404210bc704701b5002001f0bef87b
:10121c0002bdc0460029f7d003b5fff7b3ff0ebce3
:08122c004243891a1847c0462d
:020000040000fa
:1012340030b5882933d015dc812941d003dc8029dd
:101244003ed0002030bd822911d08429f9d11c68f8
:1012540002cc1c60002a1ed009b20160c91741608b
:101264000120efe7a02923d00adc9029e9d1072443
:1012740019680731a14330c9196004604560efe77c
:10128400c02901d0f029dcd11a68111d1960136836
:101294000360002312e089b201604260e0e71c6849
:1012a40002cc1c60002a01d049b2d6e7c9b2f3e7e8
:1012b4001a68111d196013680360db174360cfe7d8
:1012c40019680c1d1c600b680360002ae5d0f4e764
:020000040000fa
:1012d4001c4b00229a619a8c80218a439a841a00ba
:1012e4001023d1680b42fcd0174b1b689b0e3f2b7d
:1012f40025d09b02802292001343124a936210234a
:10130400d1680b42fcd00f4b02229a841a0010239e
:10131400d1680b42fcd00d4b0d4a5a601a00537829
:101324005bb2002bfbdb094b0a4a5a800a4a5a80fb
:101334000a4b0b4a1a62034b00221a627047203b85
:10134400d7e7c0460008004024608000000c00403d
:1013540000070100174000001e4000000004004088
:041364002000010064
:020000040000fa
:10136800f0b5c6461f4a204b00b50021934203d270
:10137800197001339342fbd10b231c4a9c46083b4e
:1013880098461368546819000026214311d01700a5
:1013980091680c3700290fd11a19002c03d01e7040
:1013a80001339342fbd13a00136854681900214372
:1013b800edd104bc9046f0bd6146c91a1d195118fb
:1013c800002c05d05a1c505c187013009542f9d1b6
:1013d800434623405a1e9341a4081c19a4003f19f0
:1013e8003a00e1e70000002000000020840a000025
:020000040000fa
:1013f800f0b51600050002278369426987b0029399
:10140800d31a03939b1904910596019302ac3a00f1
:101418002100286800f008fe019b984208d1ab68bb
:10142800ea68ab619a18aa626b61300007b0f0bd38
:1014380000280cda102200236968ab620a43ab610a
:101448006b616a60022f12d06368f61aede7019ba0
:101458001b1a01936368984202d9c01a0834013fe5
:1014680023681b1823606368181a6060cfe71e00a2
:02147800dbe7b0
:020000040000fa
:10147a00f8b5846a05000f001600002c0ad0ab6a82
:10148a006a699b1ab3420cd2320039002800fff76e
:10149a00aeff05e000f083fe03002000002beed033
:1014aa00f8bd002ef0d02b0034331b785bb2002b32
:1014ba001adb3400dbb2621eb95c994212d12200f7
:1014ca0039002800fff793ffa042e9d33f19341be4
:1014da0022003900686900f0dffe6b6930001c19d0
:0c14ea006c61dde7141ee6d13400f1e770
:020000040000fa
:0214f600fee70f
:020000040000fa
:1014f800194b01221a701a00537e5bb2002bfbdbda
:10150800164b1a68164b1b68db0e07211140490160
:101518000b435201e021c9000a4013430e4a1385c8
:101528000323d370002353700e4b1361537e5bb2b9
:10153800002bfbdb084bc92292009a801a00537ecd
:101548005bb2002bfbdb044b0f221a761a00537e8a
:101558005bb2002bfbdb7047004000422460800038
:0815680020608000061800005d
:020000040000fa
:10157000f0b51e00012389b014000e9a07001a402e
:101580000291019220d1b4421eda351b03952a0044
:10159000102d00d91022202104a800f09cfe0f2d50
:1015a0001bdc0f22039b04a913401a00380000f033
:1015b000dffb019b002b04d122000299380000f0d0
:1015c000d7fb300009b0f0bd22000299380000f0ce
:1015d000cffbb442d9db2600f3e7102204a9380080
:0815e00000f0c6fb103ddae744
:020000040000fa
:1015e80010b584291fd007dc812915d0822922d083
:1015f800802911d0002010bd90291cd008dc882932
:10160800f8d119680c1d1c600b6803601a7010e093
:10161800a02901d0c029edd119680c1d1c600b68e8
:1016280003601a6005e019680c1d1c600b680360f4
:101638001a800120dfe719680c1d1c600b68036025
:081648001a60d2175a60f4e7a2
:020000040000fa
:101650004b1801225205da4217d25b0d0722d20144
:101660009b1a0fd9ff2b13d2db05ca0fd2071343e6
:101670000903020d1143490ac200524100d9013148
:10168000c8187047c80fc007704706d1002804d19a
:10169000c80f0002ff30c00570470123db070a00b6
:1016a000c900400f084398431a4010435b0a18438f
:0416b0007047c04679
:020000040000fa
:1016b4007fb51600c2680d0013000091591e8b41be
:1016c400f31a0193836804000392694602220068b6
:1016d400029300f097fc002808dc1822082302403b
:1016e4005340626813436360060010e0019b834229
:1016f400fad2a268c01ae3681018e2632064002bcf
:1017040005d0531ce3631378ad19013d2b703000f1
:0417140004b070bdf0
:020000040000fa
:1017180037b504000d00002801d100203ebd436804
:101728009b0607d543698269934217d80023a362b1
:10173800a3616361e26b236c9a4206d20121d21a3b
:10174800d3170091206800f025fe00232364e3638b
:101758009d42e2d0206800f00bfedfe70022c36a5a
:10176800110098476369002be0d101204042d5e77a
:020000040000fa
:1017780000230e4a10b513600d4a13600d4a13601a
:101788000d4a13600d4a13600d4a53621361013309
:10179800936000f0acfd00f0b6fc0a4c0a4b9c428a
:1017a80000d310bd08cc9847f8e7c046a40700202e
:1017b8000407002000070020f8060020fc0600208f
:0c17c80008070020c4000000c80000005a
:020000040000fa
:1017d40020212223242425252626272728282828b3
:1017e400292929292a2a2a2a2b2b2b2b2c2c2c2c4d
:1017f4002c2c2c2c2d2d2d2d2d2d2d2d2e2e2e2e15
:101804002e2e2e2e2f2f2f2f2f2f2f2f000117028a
:101814001d1813031e1b190b1408040d1f161c128c
:0c1824001a0a070c1511090610050f0e1a
:020000040000fa
:10183000f8b505000c000020002d20d000f07afb48
:10184000002c17d000200e4a0421072605e0178d32
:101850004300ef52013084420dd0137e0b42fcd086
:10186000538b334207d153683340012befd0138d94
:101870002b54efe72000201a44426041c0b2f8bd6b
:04188000001400420e
:020000040000fa
:1018840070b5002000f09cf800f0e2fc0e4800f077
:1018940055fd00f095fc0d4e01252024756100f0e6
:1018a40041f90021002000f059fb013c002cf5d146
:1018b4002034b56100f036f90021002000f04efb21
:1018c400013c002cf5d1e8e710270000004400415a
:020000040000fa
:1018d400f0b50f0087b0039015001049072204a843
:1018e4001c0000f0dcfcbb687e6802933f68002d9e
:1018f40000d104ad002c03d1280000f0f2fc040058
:10190400002e02dbb44200d934000097029b22006f
:1019140029000398fff72afe07b0f0bd80230000da
:020000040000fa
:1019240070b5040016001d00022a1cd043689b06f3
:1019340019d4002908d1002d01d18025ed002800fb
:101944000830fff743fa010020236268a1601343c3
:1019540063602300e5603433ff22012e00d10a22a4
:101964001a70024be362002070bdc0467b14000075
:020000040000fa
:1019740070b5c668856804000a00ae4211d1012022
:10198400002100f04dfcc043c943431c03d00b4b62
:101994001a68104018604b1c03d0084a5368194059
:1019a4005160012319006268b56011439a43ee60e7
:1019b4006160a41822681343236070bd10040020e2
:020000040000fa
:1019c40010b50f4b06225a600e4b1b681868002195
:1019d40000f05cfc0c4b1b681868002100f056fcfe
:1019e40000f05cf8fff774fc00f0dcf900f0a0fcf8
:1019f40000f056fbfff77efd00f0f0fa10bdc04684
:0c1a0400004000411c0600206407002088
:020000040000fa
:101a100010b5064c2378002b07d1054b002b02d0c4
:101a2000044800e000bf0123237010bd68070020b8
:101a30000000000000000000044b10b5002b03d094
:101a40000349044800e000bf10bdc046000000008c
:081a50006c07002000000000fb
:020000040000fa
:101a580010b50a4b98470a4b9847fff781fc094b8a
:101a6800ff229343084a9360084b9847084b9847ce
:101a7800084b9847fff702fffee7c0467f200000ab
:101a88007f2000000000000000ed00e07917000052
:081a98007f2000007f20000008
:020000040000fa
:101aa00010b50e4b0e4a1a604022062199540120af
:101ab00006329854443a45315a540a315a54013145
:101ac0005854002130241955033418553430195412
:101ad000053019543b315a5410bdc04600440041f2
:041ae00001082000d9
:020000040000fa
:101ae40070b5002818d0002918d000250c4a01240c
:101af400072605e06b00c35a13850135a94209d0b6
:101b0400137e2342fcd053683340012bf2d0435d53
:101b14001385f2e7012070bd0020fce70120fae7fd
:041b24000014004267
:020000040000fa
:101b280010b500f057fb00f0fbfb00f0edfa00f0f9
:101b38003bf80022084bfff79df80022074bfff700
:101b480099f8fff781fd00f02ff802000b00044818
:101b580000f0eafa10bdc046000014400000503ff3
:041b68004c2300000a
:020000040000fa
:101b6c0030b401256d054c00e54215d85c00e5420a
:101b7c0012d80c001c436400044314430fd005d24c
:101b8c0082428b418041013030bc70479042994178
:101b9c008041013030bc7047002030bc70470120c0
:041bac0030bc704792
:020000040000fa
:101bb00041008c46012212068a420bd809093823bb
:101bc0001b06c918c30fdb07194340076346da42f7
:101bd00004d27047c10fc9070020704703d13823d2
:101be0001b06c918704738231b06c9180122d204e6
:041bf00011437047e6
:020000040000fa
:101bf40070b50d4b5e681b68db0714d50b4b58435f
:101c0400094b9b6800280ed00021074c013605e0e3
:101c1400b51aeb18c9181300884204d9a2689a426d
:101c2400f6d89b1af6e770bd10e000e080bb000018
:020000040000fa
:101c340030b401256d054c00e54215d85c00e54241
:101c440012d80c001c436400044314430cd005d286
:101c540082428b418041404230bc7047904299415e
:101c64008041404230bc7047002030bc7047c046c1
:020000040000fa
:101c740030b401256d054c00e54215d85c00e54201
:101c840012d80c001c436400044314430cd005d246
:101c9400904299418041404230bc704782428b411e
:101ca4008041404230bc7047002030bc7047c04681
:020000040000fa
:101cb400030010b51a78202a0dd01100093904291f
:101cc40009d900212b2a02d02d2a01d10131013357
:101cd40000200a2404e00133ece760430133801a56
:101ce4001a78303a092af8d9002900d1404210bda7
:020000040000fa
:101cf4000c4a036810b5546a0b4a591e121b9142d0
:101d04000bd9002b05d00c220120084b40421a604d
:101d140010bd102202600020fae70f22173393430c
:101d24000360f8e708070020efffff7fa807002003
:020000040000fa
:101d34000309013b1800202b07d90a4a934205d80e
:101d44000948db08c318043b18787047e0223f2099
:101d540052019342f9d80448db09c318043b1878ac
:0c1d64001030f2e7ff010000d41700006f
:020000040000fa
:101d7000436870b50400d80510d52569954200d98f
:101d800015002a00606900f08cfa226963695b190a
:101d9000551b0022636125611a7070bddb06fcd4ff
:081da000200000f06bfaf8e7e7
:020000040000fa
:101da8000a4b0b4a1a60d22252429a81c0229202ee
:101db8005a601a00d369002bfcd1044a1368022127
:101dc8000b431360d369002bfcd170470014004209
:041dd80004010040c2
:020000040000fa
:101ddc00f4464a1805d200f049f801d5c01740085e
:101dec00604701235b05d34206d200f03ff801d5d2
:101dfc000120c0074042604701d10042f5d0d01706
:041e0c0040087047d3
:020000040000fa
:101e1000f0b5050000200a4c4200165d002e02d1ec
:101e2000a2185078f0bd296801300f78c0b2b742cf
:101e300003d1a2180131507829600a28ecd9f1e7c2
:041e40008c210000f1
:020000040000fa
:101e440070b4012676054c005d00e6420cd8ee42e3
:101e54000ad825430543154303d0994204d190423f
:101e640002d1012070bc7047002070bc7047c0468e
:020000040000fa
:101e74004a0010d2520d03231b02ff33d21a0ad494
:101e840052421f3209d4400dc90208430123db0723
:101e94001843d040704700207047d0177047c046a1
:020000040000fa
:101ea400f8b5050001262c68344201d000200ee06c
:101eb4002000fff73dff070000f048f92868a04222
:101ec400f1d1b043281a3900fff752fd0120f8bdc3
:020000040000fa
:101ed400084a1368002b09d007491818884202d809
:101ee40010601800704701235b42fae7034b13604c
:101ef400f2e7c046ac070020b8090020b80700206c
:020000040000fa
:101f0400f8b5050001276c683c4201d000200de0c3
:101f14002000fff70dff060000f018f96b68a342dc
:0e1f2400f1d128003100fff723fd0120f8bda8
:020000040000fa
:021f3200fee7c8
:020000040000fa
:101f3400094b5b8b5b070dd0074b80221a76793aed
:101f44005a831b7e5b0705d5034b04211a8d1a7e29
:0c1f54000a42fbd17047c0460014004256
:020000040000fa
:101f600070b5094c80263601a6610a20fff742feb3
:101f70008025ad03656166610a20fff73bfea56120
:0c1f8000c820fff737fe70bd0044004190
:020000040000fa
:101f8c00002380290fdb812901dd83290bd1072157
:101f9c00136807338b431900083111601a685b68aa
:0a1fac000260436001231800704733
:020000040000fa
:101fb600020000234832d356591e0b4313700423e4
:101fc6004268134005d0102313434360012040426a
:0a1fd60070470364c3631800fae7c4
:020000040000fa
:101fe000bff35f8f62b6064bc12080001a580549c7
:101ff0001140c02212020a431a5020221a60704770
:0820000000e100e0ff00ffff1a
:020000040000fa
:10200800f7b5002507000c002e000192019b9e42a7
:1020180001db2800febd62682168380000f062f824
:0820280001362d180834f1e720
:020000040000fa
:10203000f7b5002507000c002e000192019b9e427f
:1020400001db2800febd62682168380000f090f8ce
:0820500001362d180834f1e7f8
:020000040000fa
:10205800012370b544689c43651a102d0ad94218ab
:1020680019432b431160536008320351416010003b
:06207800fef766ff70bddb
:020000040000fa
:02207e007047a9
:020000040000fa
:1020800010b5054b01221a73044b1b68002b02d0bc
:10209000034a1068984710bd00400041980700208f
:0420a0009c07002079
:020000040000fa
:1020a400054a0023136093600449516006211160be
:1020b400034a93601360704710e000e07fbb0000a8
:0420c400840700206d
:020000040000fa
:1020c80010b5064b1b68064b9a6801329a601b686c
:1020d800002b02d0024a5068984710bd10e000e07b
:0420e8008407002049
:020000040000fa
:1020ec0010b50c000023002809d10300002a06d0eb
:1020fc0001212000fff796fb0028f9d001231800de
:02210c0010bd04
:020000040000fa
:02210e00704718
:020000040000fa
:102110009d2201000ad002d4013a4900fcd5d20523
:10212000080a0906494100d3012950417047c046b9
:020000040000fa
:102130000fb407b5054b04aa1b6802ca18680192c0
:1021400000f058f803b008bc04b01847640700203a
:020000040000fa
:10215000064b0130c000c258002a05d10200083adf
:10216000d21819184a60c2507047c04610040020a7
:020000040000fa
:1021700070b50d001400012801d0200070bd2100b1
:0c2180002800fff7affc0028f9d0f6e7bc
:020000040000fa
:10218c0068076c094c836a9074a07ac000806888d8
:0c219c0000846c820081286e696c2900b0
:020000040000fa
:1021a80010b50400fff703ff002805d1a368e26813
:0a21b800a36163619b18a36210bdd0
:020000040000fa
:0221c200704764
:020000040000fa
:1021c400044a137802210b431370537e5bb2002b35
:0821d400fbdb704700400042f4
:020000040000fa
:1021dc00044a137b02210b431373537e5bb2002b17
:0821ec00fbdb704700400042dc
:020000040000fa
:1021f40013b50400019201aafef7ccf96368db066b
:0822040001d50120404216bd86
:020000040000fa
:10220c00d0400b1cd1409c46203ad340184352423c
:10221c0063469340184370479140031c90409c4682
:10222c00203a9340194352426346d34019437047b6
:020000040000fa
:10223c00006810b5002801da002010bdfff744fe3d
:06224c00431cfad1f8e783
:020000040000fa
:022252007047d3
:020000040000fa
:10225400034b00229a601a6801210a431a607047ee
:0422640010e000e0a6
:020000040000fa
:1022680010b500f081f8024b1860586010bdc046e8
:0422780090070020ab
:020000040000fa
:10227c00c36a10b5002b01d0984710bd0068fff75a
:04228c0071fffae7fd
:020000040000fa
:102290004a424a41802310b55200db00fff742fb5f
:0222a00010bd6f
:020000040000fa
:1022a200002310b59a4200d110bdcc5cc454013356
:0222b200f8e74b
:020000040000fa
:1022b40003000a7818001a7001310133002af8d19a
:0222c400704761
:020000040000fa
:1022c600494e4600696e66004e414e006e616e00d4
:020000040000fa
:1022d60003001218934200d1704719700133f9e7d1
:020000040000fa
:1022e60003001a78002a01d1181a70470133f8e75b
:020000040000fa
:1022f60010b5fff7b6fffff761fffff75fff10bdf1
:020000040000fa
:1023080010b5fef7b7fc029a039bfef7d3fa10bd8f
:020000040000fa
:0e2318000300413b192b01d8202318437047c6
:020000040000fa
:0c232800014b588b80b27047004000420f
:020000040000fa
:0c233400014b82225a60704700400041bb
:020000040000fa
:0c2340000138014b5860704710e000e0cd
:020000040000fa
:0c234c00766f6c7473203a202566200028
:020000040000fa
:0c23580010b50400fff7aaff200010bd24
:020000040000fa
:0a23640010b50068fff702ff10bd7e
:020000040000fa
:082370000048704790060020b0
:020000040000fa
:08237800012040427047c046fd
:020000040000fa
:07238000286e756c6c29004a
:020000040000fa
:0623880000200021704757
:020000040000fa
:04238e000020704774
:020000040000fa
:042392000020704770
:020000040000fa
:042398007047c04684
:020000040000fa
:04239c000020704766
:020000040000fa
:0200000400807a
:0440000077c700d8a6
:020000040000fa
:0200000400807a
:044004005c00ffff5e
:00000001FF
