:020000040000fa
:10000000f03f002085150000fb0c00009b12000053
:1000100000000000000000000000000000000000e0
:10002000000000000000000000000000db0a0000eb
:100030000000000000000000db0a0000f5190000cd
:10004000db0a0000db0a0000db0a0000db0a00001c
:10005000db0a0000ad190000db0a0000db0a00002b
:10006000db0a0000db0a0000db0a0000db0a0000fc
:10007000db0a0000db0a00005d070000db0a00006d
:10008000db0a0000db0a0000db0a0000db0a0000dc
:10009000db0a00000000000000000000db0a000096
:1000a000db0a0000db0a0000db0a0000db0a0000bc
:0800b00000000000db0a000063
:020000040000fa
:1000b800f8b5c046f8bc08bc9e46704765150000f8
:1000c800f8b5c046f8bc08bc9e4670473d15000010
:020000040000fa
:0800d8002009000001000000f6
:020000040000fa
:1000e0000023f0b506001500afb005910193059906
:1000f0000b78002b00d10fe101235b420a930eab7a
:1001000000240c93802309940b940d930b5d002b1a
:1001100001d0252b2ad1002c06d02200300001f07e
:1001200035fb059b1b190593059b1a78252a00d0e2
:10013000e7e0013302930593022310219c46082730
:10014000059803782b2b1bd025d8202b1bd0232bd5
:100150001dd02a2b2ad001f07dfa0b90059b1a782e
:10016000303a092a33d801330593f7e70134cde754
:100170000122099b80180393134309930590dfe73d
:100180000423099a0ee0099b03933b430be0099b70
:1001900003930b4307e02d2bead0302bd9d16246d5
:1001a000099b0393134309930130e7e72b68013060
:1001b0001a1d1b6805902a600b93002b07da099a19
:1001c0005b420392012203990b934a400992099bd7
:1001d000da0702d5022293430993059b1a782e2a47
:1001e0000ed10022581c0a9205905a782a2a28d14a
:1001f000023305932b681a1d1b682a6003930a9328
:1002000005a801f0dffa059b0700187801f000fd52
:10021000692800d183e035dc632800d1d6e01bdcff
:10022000252800d1dfe0612859d0252306aa1370c4
:10023000029b0593002309930b93013b0a9302331e
:10024000b2e001f007fa0a90059b1a78303a092ac1
:10025000d6d801330593f7e7642860d06728e4dc3b
:100260002a00390006a801f03bfb002800d1a9e0d4
:10027000059b09a95a1c05921b7806aa300001f0bb
:10028000f9fc3de0702800d17de016dc6e2800d13d
:1002900091e06f28c9d12b000022390006a800f098
:1002a000dcfc002800d18de0059b06aa013309a9da
:1002b0003000059300f024ff22e0752840d0782814
:1002c0004fd07328b1d1802f00d07be0059b2a68e6
:1002d00001330593131d2b601268002364e02a008c
:1002e000390006a801f0fcfa002800d16ae0059b5d
:1002f00009a95a1c05921b7806aa300001f0bafc25
:100300002418019b1c19a34200dc74e04f223b4bd4
:100310001a6001235b42019301982fb0f0bd2b00be
:100320000122390006a800f098fc00284ad0059b5d
:1003300006aa013309a93000059300f035fcdfe778
:100340002b000022390006a800f087fc002839d0d5
:10035000059b06aa013309a93000059300f0faffb6
:10036000cee72b000022390006a800f076fc00281a
:1003700028d0059b5a1c05921b7806aa09a93000b3
:1003800000f0a2fabce72b000022f02106a800f042
:1003900064fc002816d0059b079a01330593069b41
:1003a000134306d1164a163209a9300001f028f885
:1003b000a6e77823e1e7019b39001a1906a82b006c
:1003c00000f0d5fe059b013305939ae7802ff9d104
:1003d000059b013305932b681a1d1b682a6006aa2a
:1003e00013700123e0e7802fecd1059b06aa0133af
:1003f00005931070f5e7019479e6c046dc0700200c
:04040000b41a00002a
:020000040000fa
:10040400980700201c00000000000000c80700201e
:100414000400000000000000cc07002004000000dd
:100424000000000048070020300000000000000029
:10043400b40700200c00000000000000d0070020da
:100444000400000000000000d407002004000000a5
:1004540000000000f806002050000000000000002a
:100464001806002078000000010000002806002083
:1004740020060020280600200000000000000000e4
:100484002500000008000020000400000000000017
:100494000000000000000000000000000000000058
:1004a400000000000000000000000000691c0000c3
:1004b4000000000000000000000000000000000038
:1004c400d711000000000000000000000000000040
:1004d4000000000000000000000000000000000018
:1004e40000000000000000200804000000000000dc
:1004f4007807002020000000010000000100000037
:1005040003000000000000000000000000000000e4
:100514000000000000000000c0070020c007002009
:100524000800000000000000d807002004000000bc
:1005340000000000dc0700200400000000000000b0
:1005440008040020100200000000000090060020b3
:10055400680000000100000001000000030000002a
:100564000000000000000000000000000000000087
:10057400000000003b12000000000000000000002a
:1005840000000000451c00003b1a000000000000b1
:100594000000000000000000000000000000000057
:1005a4000000000000000000000000000000000047
:1005b4000000000000000000000000000000000037
:1005c400e00700200400000000000000000000001c
:1005d400000000002222222222222222222222227f
:020000040000fa
:1005e400f0b587b0039003a801f052f8002802daae
:1005f400002007b0f0bd039b1b095d1e202d09d907
:100604004f49023b4f4a8b4224d8db08d318043ba2
:100614001d7801352a000120002101f095fa0024fb
:1006240043428c4100930194474f00983a687b6899
:100634001040020001990b401a433fd1039b05a8c7
:100644001033059301f098fa002809d10c223f4b8e
:100654001a60cee7db09d318043b1d781135d9e7be
:100664003b490c68a04206d0059b0400103b05934f
:100674000123103483600125059be2180a602b4393
:10068400083a083c28c26360002cb1d0200001f075
:10069400b1f800280bd023686168ab43e31a5a68a9
:1006a400aa4352185a606168a94362501c00200092
:1006b400039901f065f9200008309ae7214a254999
:1006c4003c32002831d1584203404b43db0ed65c08
:1006d4002036300001f0c0f9731cdb00fc58083be5
:1006e400fb189c42a0d0272e25dd0235ae4201dc4a
:1006f4003f2e20d101226368039f9343dd1b280012
:10070400009301f005f8864215d1e268a168e31967
:10071400da60996093609a68d360012217431f607e
:100724005d60009be5506760c1e7434203404b4373
:10073400db0ed65ccde73100200000f0affeb6e75b
:10074400ff010000f812000010040020dc07002064
:080754000804002029e66b07f0
:020000040000fa
:10075c00f0b5c64600b5574b9b7d002b17d0554abc
:10076c00137edbb2927d52b2002a13db514a137e08
:10077c00dbb2927dd20702d5db0700d582e04d4a71
:10078c00137edbb2927d520701d55b074bd404bcc0
:10079c009046f0bd5bb2002be8da464b5b8b072230
:1007ac001340e3d0444ce38501f068f8414b8422bc
:1007bc001a752c230022e254636a002bd6d03e4ad1
:1007cc00906a9847d2e7bb68f35c0b85936801335a
:1007dc009360936898460b7e23420bd0404509d911
:1007ec004b682b40012beed163469b685b009b5bf7
:1007fc000b85ebe7304b9a685b689a42bfd32e4b64
:10080c0000221a755a602b4a01211175db68002be6
:10081c00b5d0294a10699847b1e727490a6a89690e
:10082c005200535215e0244a2c23d35c002baed03b
:10083c00214b1a6adb699a42a9d21e4a138d9bb2cc
:10084c00516807220a40012ae7d01b4a116a9269b3
:10085c005354194b1a6a01321a621a6adb699a42aa
:10086c0000d094e7144b00222c215a54da61114a1f
:10087c00583111755b6a002b00d188e70e4a906adb
:10088c00984784e70c4b1b7d002b00d177e70a4b74
:10089c009a685868074b1b7edb07abd58242a9d2fe
:1008ac00054b1e68034907259c461f001a000124ae
:0c08bc0096e7c046001c004248070020e0
:020000040000fa
:1008c800f0b58fb00d934b680c9008938b680d00b2
:1008d8000993cb6816000393089b0f68002b60db15
:1008e80002239f4310233b400a93336805937368a0
:1008f8000693099b04930a9b002b06d0059b069a36
:10090800134302d0099b023b049308233b400b93fb
:100918005a1e9341049ad31a04932b69039a5c1eb6
:1009280000231355089b0793012c10dd059b069a9d
:10093800134339d1079b002b36dc089a049b9b1a7a
:10094800079a9b18002b02dd02231f422cd10a9b19
:10095800002b0bd00cce134308d0039b0d9a1b1908
:10096800013b1a703023039a023c13550b9b002b52
:1009780003d02023039a013c13552b6900975a1e74
:10098800039b121b19190c98099b00f03ffb0c9b49
:100998005b68db0503d56b68984200da18000fb076
:1009a800f0bd012308939de70f22059b013c1340ee
:1009b80018005730092b01dc303318000d9b413be0
:1009c800192b06d820230343613b192b01d801f0ca
:1009d80022f9039b1855079b013b0793069b1a07af
:1009e800059b1b091a43069b05921b0906939be767
:020000040000fa
:1009f800f0b5060085b00f0015001c008b4265d8c5
:100a080001d1824262d82100280001f0a7f83900fc
:100a18000090300001f0a2f8009b21001b1a1a0078
:100a28002800039301f08ef800900191019bbb42ce
:100a380046d802d1009bb34242d8009b019c039a3e
:100a480001200021f61aa74101f07cf8039b002b36
:100a58002fd0019b009adb0754081c43019b5d08bb
:100a6800039b9c46bd422ed801d1b4422bd83200fc
:100a78003b00121bab41012692185b410027b618b8
:100a88005f4101235b429c446346002bead18019f5
:100a98007941039a04000d003000390001f046f84e
:100aa800039a06000f0001f04df8241a8d4120002a
:100ab80029000a9b002b01d01e605f6005b0f0bdc5
:100ac80000200021c2e7b6197f41dae700200021a3
:020ad800efe746
:020000040000fa
:020ada00fee735
:020000040000fa
:100adc00f7b5002858d00838436801221e00964309
:100aec0085192a680400934200d0ffde01276b6849
:100afc00226813403b420ed1200000f077fe002804
:100b0c0043d1280000f0a2fe0028f0d06b68bb4354
:100b1c00f618ed18ebe73b003343636030002b60b5
:100b2c0000f0f2fd019000f093ff6b682268134017
:100b3c003b42e1d0184b019a1868596800f0f4ff59
:100b4c00384212d1019a0120002100f0f9ff0b006c
:100b5c00002804d0104a126802430f480260002b90
:100b6c0003d00d4a53680b435360019b0a4a01336f
:100b7c00db00d3181a005b68083a66602e60e360ed
:100b8c00a260d460e3689c60f7bd2368bb43e41aa1
:0c0b9c006368bb43f618b4e710040020a7
:020000040000fa
:100ba800f0b54b6889b005930b6807009c4607931e
:100bb800cb680c008e68049310685168cd0f44d040
:100bc8000b000200002150429941059b002b08dbd5
:100bd8000222634693430793002d02d1079b5a07cd
:100be8002ad5731e07aa02920a22009301920b00cb
:100bf8000200200000f051f9002d02d1079b5a078e
:100c08001ed501382d23002d00d1023b049a135420
:100c180023695a1e049b121a1918079b380000935f
:100c2800330000f0f3f97b68db0503d5636898426d
:100c380000da180009b0f0bd1b07db0ff31ad1e783
:100c48001b07e5d501382023e0e7059b002bbfda19
:020c5800c4e7ef
:020000040000fa
:100c5a0030b5882933d015dc812941d003dc8029bd
:100c6a003ed0002030bd822911d08429f9d11c68d8
:100c7a0002cc1c60002a1ed009b20160c91741606b
:100c8a000120efe7a02923d00adc9029e9d1072423
:100c9a0019680731a14330c9196004604560efe75c
:100caa00c02901d0f029dcd11a68111d1960136816
:100cba000360002312e089b201604260e0e71c6829
:100cca0002cc1c60002a01d049b2d6e7c9b2f3e7c8
:100cda001a68111d196013680360db174360cfe7b8
:100cea0019680c1d1c600b680360002ae5d0f4e744
:020000040000fa
:020cfa00fee713
:020000040000fa
:100cfc001c4b00229a619a8c80218a439a841a0098
:100d0c001023d1680b42fcd0174b1b689b0e3f2b5a
:100d1c0025d09b02802292001343124a9362102327
:100d2c00d1680b42fcd00f4b02229a841a0010237c
:100d3c00d1680b42fcd00d4b0d4a5a601a00537807
:100d4c005bb2002bfbdb094b0a4a5a800a4a5a80d9
:100d5c000a4b0b4a1a62034b00221a627047203b63
:100d6c00d7e7c0460008004024608000000c00401b
:100d7c0000070100194000001e4000000004004064
:040d8c0080000100e2
:020000040000fa
:100d9000f0b5c6461f4a204b00b50021934203d24e
:100da000197001339342fbd10b231c4a9c46083b2c
:100db00098461368546819000026214311d0170083
:100dc00091680c3700290fd11a19002c03d01e701e
:100dd00001339342fbd13a00136854681900214350
:100de000edd104bc9046f0bd6146c91a1d195118d9
:100df000002c05d05a1c505c187013009542f9d194
:100e0000434623405a1e9341a4081c19a4003f19cd
:100e10003a00e1e700000020000000200404000088
:020000040000fa
:100e2000f0b51600050002278369426987b0029376
:100e3000d31a03939b1904910596019302ac3a00cf
:100e40002100286800f08afd019b984208d1ab6818
:100e5000ea68ab619a18aa626b61300007b0f0bd16
:100e600000280cda102200236968ab620a43ab61e8
:100e70006b616a60022f12d06368f61aede7019b7e
:100e80001b1a01936368984202d9c01a0834013fc3
:100e900023681b1823606368181a6060cfe71e0080
:020ea000dbe78e
:020000040000fa
:100ea200f0b5050085b019000c9b100001931a687b
:100eb2002b696c68013bef681d00002c00da0124ed
:100ec2000026fe540a9e0123361b02960226164075
:100ed2000b9ad2170392002d04dc002b17d02800a6
:100ee20005b0f0bd02000a4307d1002c05dc029ace
:100ef2001219002af1dd002eefd00b9a039b00f0ad
:100f0200e8fb013d130030327a55013ce3e7102340
:0e0f1200019a12689a431300019a1360dfe7f8
:020000040000fa
:100f2000f8b5846a05000f001600002c0ad0ab6ae1
:100f30006a699b1ab3420cd2320039002800fff7cd
:100f40006fff05e000f0c4fd03002000002beed091
:100f5000f8bd002ef0d02b0034331b785bb2002b91
:100f60001adb3400dbb2621eb95c994212d1220056
:100f700039002800fff754ffa042e9d33f19341b82
:100f800022003900686900f022fe6b6930001c19ec
:0c0f90006c61dde7141ee6d13400f1e7cf
:020000040000fa
:100f9c001a4b01221a701a00537e5bb2002bfbdb3a
:100fac00174b1a68174b1b68db0e072111404901c0
:100fbc000b435201e021c9000a4013430f4a138529
:100fcc000323d370013b5370c0235b011361537e29
:100fdc005bb2002bfbdb094bcd2292009a801a00ee
:100fec00537e5bb2002bfbdb044b0f221a761a00ec
:100ffc00537e5bb2002bfbdb7047c04600400042c7
:08100c002460800020608000d8
:020000040000fa
:10101400f0b51e00012389b014000e9a07001a408f
:101024000291019220d1b4421eda351b03952a00a5
:10103400102d00d91022202104a800f0cffd0f2d7f
:101044001bdc0f22039b04a913401a00380000f094
:101054009bfb019b002b04d122000299380000f075
:1010640093fb300009b0f0bd22000299380000f073
:101074008bfbb442d9db2600f3e7102204a9380025
:0810840000f082fb103ddae7e9
:020000040000fa
:10108c0070b500282fd0194b1a7d0023002a26d1c9
:10109c00164b1860596001321a75154b1b7edb0715
:1010ac0016d500291dd00023114c0726012507e079
:1010bc00c25c22850133227e2a420ad0994208d989
:1010cc0062683240012af3d15a00825a2285f1e734
:1010dc000023064a9360064b01229a7501231800df
:1010ec0070bd0b00f5e70023f9e7c0464807002068
:0410fc00001c004292
:020000040000fa
:10110000f0b50b680c008f68cd68496887b00600a1
:101110000593002902db02218b43059305a953683f
:10112000126802910821009701912000fff7b9fe93
:10113000059bdb0602d5302301382b54059b1b078a
:1011400002d5202301382b54236929185a1e059be8
:10115000121a009330003b00fff75cff7368db0559
:0e11600003d56368984200da180007b0f0bdae
:020000040000fa
:10116e0010b584291fd007dc812915d0822922d001
:10117e00802911d0002010bd90291cd008dc8829b0
:10118e00f8d119680c1d1c600b6803601a7010e012
:10119e00a02901d0c029edd119680c1d1c600b6867
:1011ae0003601a6005e019680c1d1c600b68036073
:1011be001a800120dfe719680c1d1c600b680360a4
:0811ce001a60d2175a60f4e721
:020000040000fa
:1011d6007fb51600c2680d0013000091591e8b41a1
:1011e600f31a019383680400039269460222006899
:1011f600029300f09cfb002808dc1822082302401a
:101206005340626813436360060010e0019b83420b
:10121600fad2a268c01ae3681018e2632064002bb1
:1012260005d0531ce3631378ad19013d2b703000d4
:0412360004b070bdd3
:020000040000fa
:10123a0037b504000d00002801d100203ebd4368e7
:10124a009b0607d543698269934217d80023a36294
:10125a00a3616361e26b236c9a4206d20121d21a1e
:10126a00d3170091206800f004fd00232364e36390
:10127a009d42e2d0206800f0eafcdfe70022c36a60
:10128a00110098476369002be0d101204042d5e75d
:020000040000fa
:02129a00fee76d
:020000040000fa
:10129c0000230e4a10b513600d4a13600d4a1360fb
:1012ac000d4a13600d4a13600d4a536213610133ea
:1012bc00936000f09ffc00f0e0fa0a4c0a4b9c4251
:1012cc0000d310bd08cc9847f8e7c046d8070020db
:1012dc000407002000070020f8060020fc06002070
:0c12ec0008070020c4000000c80000003b
:020000040000fa
:1012f8002021222324242525262627272828282894
:10130800292929292a2a2a2a2b2b2b2b2c2c2c2c2d
:101318002c2c2c2c2d2d2d2d2d2d2d2d2e2e2e2ef5
:101328002e2e2e2e2f2f2f2f2f2f2f2f000117026b
:101338001d1813031e1b190b1408040d1f161c126d
:0c1348001a0a070c1511090610050f0efb
:020000040000fa
:10135400f0b50b680c008f68cd68496887b006004b
:101364000593002902db02218b43059305a95368e9
:10137400126802910a21009701912000fff78ffd66
:10138400236929185a1e059b121a009330003b004a
:10139400fff73efe7368db0503d56368984200da05
:0613a400180007b0f0bdc7
:020000040000fa
:0213aa0070478a
:020000040000fa
:1013ac00114b124a1a60d22252429a81c0229202e6
:1013bc005a601a00d369002bfcd10b4a1368022126
:1013cc000b431360d369002bfcd1094b00229a61ab
:1013dc00da611a622c215a545a621a605a609a6065
:1013ec001a75da60da857047001c0042040120404f
:0413fc00480700207e
:020000040000fa
:10140000f0b50f0087b0039015001049072204a81b
:101410001c0000f0dcfbbb687e6802933f68002d77
:1014200000d104ad002c03d1280000f0e1fb040042
:10143000002e02dbb44200d934000097029b220048
:1014400029000398fff7e6fd07b0f0bd601c00001f
:020000040000fa
:1014500070b5040016001d00022a1cd043689b06cc
:1014600019d4002908d1002d01d18025ed002800d4
:101470000830fff7b7f8010020236268a16013432a
:1014800063602300e5603433ff22012e00d10a227d
:101490001a70024be362002070bdc046210f0000ad
:020000040000fa
:1014a00070b5c668856804000a00ae4211d10120fb
:1014b000002100f04bfbc043c943431c03d00b4b3e
:1014c0001a68104018604b1c03d0084a5368194032
:1014d0005160012319006268b56011439a43ee60c0
:1014e0006160a41822681343236070bd10040020bb
:020000040000fa
:1014f00010b50f4b06225a600e4b1b68186800216e
:1015000000f05cfb0c4b1b681868002100f056fbd8
:1015100000f0b4fafff7f2fb00f08efb00f058fa8f
:10152000fff744fffff73afd00f050f810bdc0464a
:0c153000004000411c0600209407002031
:020000040000fa
:10153c0010b5064c2378002b07d1054b002b02d09d
:10154c00044800e000bf0123237010bd9807002061
:10155c000000000000000000044b10b5002b03d06d
:10156c000349044800e000bf10bdc0460000000065
:08157c009c07002000000000a4
:020000040000fa
:1015840010b50a4b98470a4b9847fff7fffb094be6
:10159400ff229343084a9360084b9847084b9847a7
:1015a400084b984700f084f9fee7c046ab130000ef
:1015b400ab1300000000000000ed00e09d120000ed
:0815c400ab130000ab130000a3
:020000040000fa
:1015cc00bff35f8f62b60c4bc12080001a580b49d9
:1015dc001140c02212020a431a5020221a6008300d
:1015ec001a5807491140c02212040a431a5080228b
:1015fc00d2011a607047c04600e100e0ff00ffff17
:04160c00ffff00ffdd
:020000040000fa
:1016100070b504000d00002815d00c4a2c23d35cb3
:101620000020002b00d070bd00f02ef9074b9c610c
:10163000dd6100221a622c2101205854da85044b06
:1016400084329a75efe70020ede7c0464807002096
:04165000001c004238
:020000040000fa
:10165400030010b51a78202a0dd011000939042985
:1016640009d900212b2a02d02d2a01d101310133bd
:1016740000200a2404e00133ece760430133801abc
:101684001a78303a092af8d9002900d1404210bd0d
:020000040000fa
:101694000c4a036810b5546a0b4a591e121b914236
:1016a4000bd9002b05d00c220120084b40421a60b4
:1016b40010bd102202600020fae70f221733934373
:1016c4000360f8e708070020efffff7fdc07002036
:020000040000fa
:1016d400002b11d1002a0fd1002900d1002802d0fb
:1016e4000021c943081c07b4024802a14018029013
:1016f40003bdc0468105000003b4684601b50298e5
:10170400fff778f9019b9e4602b00cbc7047c046b7
:020000040000fa
:101714000309013b1800202b07d90a4a934205d834
:101724000948db08c318043b18787047e0223f20bf
:1017340052019342f9d80448db09c318043b1878d2
:0c1744001030f2e7ff010000f812000076
:020000040000fa
:101750001c2101231b04984201d3000c10391b0ae1
:10176000984201d3000a08391b09984201d30009a5
:10177000043902a2105c40187047c04604030202fc
:0c17800001010101000000000000000059
:020000040000fa
:10178c00436870b50400d80510d52569954200d979
:10179c0015002a00606900f014fa226963695b196c
:1017ac00551b0022636125611a7070bddb06fcd4e9
:0817bc00200000f0f3f9f8e74a
:020000040000fa
:1017c400f0b5050000200a4c4200165d002e02d13f
:1017d400a2185078f0bd296801300f78c0b2b74222
:1017e40003d1a2180131507829600a28ecd9f1e715
:0417f400b41a000023
:020000040000fa
:1017f800f8b5050001262c68344201d000200ee01f
:101808002000fff783ff070000f024f92868a042b2
:10181800f1d1b043281a3900fff73efe0120f8bd88
:020000040000fa
:10182800084a1368002b09d007491818884202d8bb
:1018380010601800704701235b42fae7034b1360fe
:10184800f2e7c046e0070020e8090020e80700208a
:020000040000fa
:10185800f8b5050001276c683c4201d000200de076
:101868002000fff753ff060000f0f4f86b68a3426e
:0e187800f1d128003100fff70ffe0120f8bd6e
:020000040000fa
:021886007047a9
:020000040000fa
:10188800094b5b8b5b070dd0074b80221a76793aa0
:101898005a831b7e5b0705d5034b04211a8d1a7edc
:0c18a8000a42fbd17047c046001c004201
:020000040000fa
:1018b40070b50020fff71afe00f016f9054d064c2e
:1018c40000f01ef900f0b0f901002860200000f0db
:0c18d400b3f8f5e7d0070020701c0000fe
:020000040000fa
:1018e000002380290fdb812901dd83290bd107210a
:1018f000136807338b431900083111601a685b685d
:0a19000002604360012318007047e5
:020000040000fa
:10190a00020000234832d356591e0b431370042396
:10191a004268134005d0102313434360012040421c
:0a192a0070470364c3631800fae776
:020000040000fa
:10193400f7b5002507000c002e000192019b9e4282
:1019440001db2800febd62682168380000f062f8ff
:0819540001362d180834f1e7fb
:020000040000fa
:10195c00f7b5002507000c002e000192019b9e425a
:10196c0001db2800febd62682168380000f08ef8ab
:08197c0001362d180834f1e7d3
:020000040000fa
:10198400012370b544689c43651a102d0ad9421886
:1019940019432b4311605360083203514160100016
:0619a400fff79af870bd88
:020000040000fa
:0219aa00704784
:020000040000fa
:1019ac0010b5054b01221a73044b1b68002b02d097
:1019bc00034a1068984710bd00400041c80700203a
:0419cc00cc07002024
:020000040000fa
:1019d000054a002313609360044951600621116099
:1019e000034a93601360704710e000e07fbb000083
:0419f000b407002018
:020000040000fa
:1019f40010b5064b1b68064b9a6801329a601b6847
:101a0400002b02d0024a5068984710bd10e000e055
:041a1400b4070020f3
:020000040000fa
:101a180010b50c000023002809d10300002a06d0c5
:101a280001212000fff7f0fd0028f9d0012318005c
:021a380010bddf
:020000040000fa
:021a3a007047f3
:020000040000fa
:101a3c000fb407b5054b04aa1b6802ca18680192bb
:101a4c0000f066f803b008bc04b0184794070020f7
:020000040000fa
:101a5c00064b0130c000c258002a05d10200083ada
:101a6c00d21819184a60c2507047c04610040020a2
:020000040000fa
:101a7c00054b012242215a5414315a5425395a54d7
:0c1a8c003a322e39995470470044004152
:020000040000fa
:101a980070b50d001400012801d0200070bd210090
:0c1aa8002800fff7effa0028f9d0f6e75d
:020000040000fa
:101ab40068076c094c836a9074a07ac000806888b7
:0c1ac40000846c820081286e696c29008f
:020000040000fa
:101ad00010b50400fff719ff002805d1a368e268dc
:0a1ae000a36163619b18a36210bdaf
:020000040000fa
:101aec00044a137802210b431370537e5bb2002b14
:081afc00fbdb704700400042d3
:020000040000fa
:101b0400044a137b02210b431373537e5bb2002bf5
:081b1400fbdb704700400042ba
:020000040000fa
:101b1c0013b50400019201aafef7dcfa6368db0638
:081b2c0001d50120404216bd65
:020000040000fa
:101b3400d0400b1cd1409c46203ad340184352421b
:101b440063469340184370479140031c90409c4661
:101b5400203a9340194352426346d3401943704795
:101b640010b5002903d1fff7f1fd203002e0081c75
:081b7400fff7ecfd10bdc046b7
:020000040000fa
:101b7c00006810b5002801da002010bdfff74efefa
:061b8c00431cfad1f8e74a
:020000040000fa
:101b940010b500f05bf8024b1860586010bdc046e9
:041ba400c007002056
:020000040000fa
:101ba800c36a10b5002b01d0984710bd0068fff735
:041bb8006ffffae7da
:020000040000fa
:101bbc004a424a41802310b55200db00fff742fc39
:021bcc0010bd4a
:020000040000fa
:101bce00002310b59a4200d110bdcc5cc454013331
:021bde00f8e726
:020000040000fa
:101be00003001218934200d1704719700133f9e7ce
:020000040000fa
:101bf00003001a78002a01d1181a70470133f8e758
:020000040000fa
:101c000010b5fff7c7fffff7d0fefff7cefe10bd00
:020000040000fa
:0e1c10000300413b192b01d8202318437047d5
:020000040000fa
:0e1c1e000300613b192b01d85f23184070476b
:020000040000fa
:0c1c2c00014b588b80b270470040004212
:020000040000fa
:0c1c3800014b82225a60704700400041be
:020000040000fa
:0a1c440010b50068fff726ff10bd81
:020000040000fa
:081c50000048704790060020d7
:020000040000fa
:081c5800012040427047c04624
:020000040000fa
:071c6000286e756c6c290071
:020000040000fa
:061c68000020002170477e
:020000040000fa
:041c700025640a00dd
:020000040000fa
:041c74000020704795
:020000040000fa
:041c78007047c046ab
:020000040000fa
:041c7c00002070478d
:020000040000fa
:0200000400807a
:0440000077c700d8a6
:020000040000fa
:0200000400807a
:044004005c00ffff5e
:00000001FF
