:020000040000fa
:10000000f03f0020a5070000ef080000f108000005
:1000100000000000000000000000000000000000e0
:10002000000000000000000000000000ed080000db
:100030000000000000000000ed080000790800004a
:10004000ed080000ed080000ed080000ed080000dc
:10005000ed0800005508000029050000ed0800002b
:10006000ed080000ed080000d9000000ed080000d8
:10007000ed080000ed080000ed080000ed080000ac
:10008000ed080000ed080000ed080000ed0800009c
:10009000ed0800000000000000000000ed08000076
:1000a000ed080000ed080000ed080000ed0800007c
:0800b00000000000ed08000053
:020000040000fa
:1000b800f8b5c046f8bc08bc9e46704785070000e6
:1000c800f8b5c046f8bc08bc9e4670475d070000fe
:020000040000fa
:1000d80010b5694b9b7d002b17d0674b5b8b9b073b
:1000e80014d5664b2022ff2199540132fd399954c9
:1000f800624a2023d35c5bb2013300d18be05f4ab4
:100108002023d35c062b00d19de010bd5a4b5b8b9e
:10011800db0707d5594b2022ff2199540132fd39bd
:100128009954e5e7544b5b8b5b0707d5534b20226b
:10013800ff2199540132fe399954d9e74f4a2023b7
:10014800d35c5bb2032b44d0042b0fd0022bcfd14e
:100158001369002b04d09088002100f0a9fac7e7a2
:10016800464b9888012100f0a3fac1e7434a9369f6
:10017800126993420cd0414a9168cc5c3e482821d0
:100188004454013393610200d369002bfcd1afe7db
:100198003a4b5b69002b0ed0384b9b885b000122e1
:1001a8001343354a5362d369002bfcd1334a2033b9
:1001b8000321d1549ce7304a5168c0239b020b436a
:1001c8005360d369002bfcd12c4a20330621d1542b
:1001d8008ee72a4a5369013bd2699a420dd0264ad2
:1001e800d369002bfcd1254ad36923482821415cd7
:1001f800d068c1540133d3617ae71f4a5168e023bc
:10020800db020b435360d369002bfcd11b4a20331c
:100218000621d154e3e720230021d154164a51681e
:10022800c0239b020b435360d369002bfcd1124bb4
:1002380083221a76114b5b6a002b00d165e70f4abf
:10024800906a984761e71300002220215a5401312f
:100258005a54094b83321a761900533a4b8b134080
:10026800102bfbd1054b5b6a002b00d14de7034aed
:10027800906a984749e7c046000c004250000020a9
:020000040000fa
:10028800f0b52e4e3f25745de4b2705506012c4d35
:10029800ad192d7b002d05d0284e4e25765d002505
:1002a800b6073bd0254e4e25032777550501244e2a
:1002b8007619023f3773234ead5b6d0533d5c918e8
:1002c8000601204dad19696001011e4d495b090504
:1002d8002ed5d21805011b4949198a60194905010b
:1002e8006a5a9205920fd3409bb249194b80134a20
:1002f8004021535c02252b435354516c536c9b048f
:100308009b0e08220a4013430125002b06d10b4af5
:100318001169012383400b4313610125074a3f23d9
:10032800d4542800f0bd0601064dad196960cbe72d
:100338000501044949198a60d0e7c04600480041d0
:08034800a8000020980000202d
:020000040000fa
:100350007c0000201c00000000000000980000202d
:100360001000000000000000a800002010000000a5
:1003700000000000b8000020100000000000000095
:10038000e40000200400000000000000e80000205d
:100390000400000000000000500000202c000000bd
:1003a00000000000d80000200c0000000000000049
:1003b000c80000200d0000000100000048454c4c22
:1003c0004f204d617374657200000000ec00002046
:1003d00004000000000000000000002050000000a9
:1003e00000000000f00000200400000000000000f9
:1003f00000000000000000002222222222222222ed
:020000040000fa
:100400001e4b00229a619a8c80218a439a841a009a
:100410001023d1680b42fcd0194b1b689b0e3f2b5d
:1004200029d09b02802292001343144a9362102326
:10043000d1680b42fcd0114b02229a841a0010237f
:10044000d1680b42fcd00f4b05221a720e4b0f4a9b
:100450005a60f02212019a601a0053785bb2002ba6
:10046000fbdb094b0a4a5a80064b0a4a1a62034bc5
:1004700000221a627047203bd3e7c04600080040c4
:100480002460800000040040000c004000070100d0
:08049000154000000800010006
:020000040000fa
:10049800f0b5c6461f4a204b00b50021934203d24f
:1004a800197001339342fbd10b231c4a9c46083b2d
:1004b80098461368546819000026214311d0170084
:1004c80091680c3700290fd11a19002c03d01e701f
:1004d80001339342fbd13a00136854681900214351
:1004e800edd104bc9046f0bd6146c91a1d195118da
:1004f800002c05d05a1c505c187013009542f9d195
:10050800434623405a1e9341a4081c19a4003f19ce
:100518003a00e1e70000002000000020500300003e
:020000040000fa
:1005280030b583b0002301931a4a118c0f330b4066
:100538003f21545ce4b253540f31525cd2b2019261
:10054800019a0220920708d512494e2288541901af
:10055800114a5218002111730138019ad20709d59e
:100568000c494e220120885419010b4a52180021c7
:10057800117301301901084a52185568002d03d02b
:10058800054a53189968a847024a3f23d45403b030
:0c05980030bdc04600480041a800002013
:020000040000fa
:1005a400144b01221a601a00d369002bfcd1114ba1
:1005b400802252005a601a00d369002bfcd10d4be3
:1005c4000b22da600c4a1a601a00d369002bfcd1a2
:1005d400084b10225a831a00d369002bfcd1074b15
:1005e400002221215a5401395a54024b83329a75fc
:1005f4007047c046000c0042160010005000002056
:020000040000fa
:1006040000230e4a10b513600d4a13600d4a13609f
:100614000d4a13600d4a13600d4a5362136101338e
:10062400936000f065f900f063f90a4c0a4b9c42b0
:1006340000d310bd08cc9847f8e7c046f00000206e
:100644000c0000200800002000000020040000200e
:0c06540010000020c4000000c8000000de
:020000040000fa
:1006600010b50d4a00215160916011730b480c4b7d
:1006700058630c4c9c630c4c5c613f2419550b492e
:1006800059640b490180012111704d2202319954a6
:10069000084a1a8010bdc046a8000020980000201b
:1006a00000480041b8000020818181810004800061
:0806b00009040000020f000024
:020000040000fa
:1006b80010b5114b00229a61da61104b83321a7619
:1006c8005a680f4c22405a601a00d369002bfcd19b
:1006d80000290cd0084a20330324d454400008438e
:1006e800064b58621a00d369002bfcd110bd024a90
:1006f80020230424d454f1e750000020000c0042c9
:04070800fffffbfff5
:020000040000fa
:10070c0010b5bff35f8f62b60e4bc12080001a5834
:10071c000d491140c02212020a431a5020221a60bd
:10072c001a580a4c2240c02109040a431a5040228c
:10073c001a6004301a582240114319508022d200fa
:10074c001a6010bd00e100e0ff00ffffffff00ff9b
:020000040000fa
:10075c0010b5064c2378002b07d1054b002b02d08b
:10076c00044800e000bf0123237010bd7c00002072
:10077c000000000000000000044b10b5002b03d05b
:10078c000349044800e000bf10bdc0460000000053
:08079c008000002000000000b5
:020000040000fa
:1007a40010b50a4b98470a4b9847fff773fe094b5d
:1007b400ff229343084a9360084b9847084b984795
:1007c400084b984700f010f8fee7c046f308000015
:1007d400f30800000000000000ed00e00506000042
:0807e400f3080000f308000017
:020000040000fa
:1007ec00f8b5002000f01af800f052f8074800f0b5
:1007fc0071f8074f3526074d074c7e620d232a00f2
:10080c0021000020fff73afdf7e7c0461027000053
:0c081c00000c0042280c0042c800002024
:020000040000fa
:1008280010b5094b06225a6000f044f8fff7e4fdc2
:1008380000f04cf8fff7b2fe00f02cf8fff70cffc1
:0c084800fff760ff10bdc04600400041fb
:020000040000fa
:1008540010b5054b01221a73044b1b68002b02d000
:10086400034a1068984710bd00400041e40000208e
:04087400e800002078
:020000040000fa
:1008780010b5064b1b68064b9a6801329a601b68d4
:10088800002b02d0024a5068984710bd10e000e0e3
:04089800d800002064
:020000040000fa
:10089c00054a002313609360632151605d39116038
:1008ac00024a93601360704710e000e0d80000200b
:020000040000fa
:1008bc00044b012250215a5401315a5437322f39ea
:0808cc009954704700440041fb
:020000040000fa
:0c08d400014b80225a6070470040004138
:020000040000fa
:0c08e0000138014b5860704710e000e048
:020000040000fa
:0208ec00fee725
:020000040000fa
:0208ee00fee723
:020000040000fa
:0208f000fee721
:020000040000fa
:0208f20070474d
:020000040000fa
:0208f40070474b
:020000040000fa
:0200000400807a
:0440000077c700d8a6
:020000040000fa
:0200000400807a
:044004005c00ffff5e
:00000001FF
