:020000040000fa
:10000000f03f0020410700008f0900009109000027
:1000100000000000000000000000000000000000e0
:100020000000000000000000000000008d0900003a
:1000300000000000000000008d090000cd08000055
:100040008d0900008d0900008d0900008d09000058
:100050008d090000610800008d0900008d09000075
:100060008d0900008d0900008d0900004502000087
:100070008d0900008d090000d90000008d090000e5
:100080008d0900008d0900008d0900008d09000018
:100090008d09000000000000000000008d09000034
:1000a0008d0900008d0900008d0900008d090000f8
:0800b000000000008d090000b2
:020000040000fa
:1000b800f8b5c046f8bc08bc9e467047210700004a
:1000c800f8b5c046f8bc08bc9e467047f906000063
:020000040000fa
:1000d800f0b5c64600b5574b9b7d002b17d0554a47
:1000e800137edbb2927d52b2002a13db514a137e93
:1000f800dbb2927dd20702d5db0700d582e04d4afc
:10010800137edbb2927d520701d55b074bd404bc4a
:100118009046f0bd5bb2002be8da464b5b8b0722ba
:100128001340e3d0444ce38500f06afb414b842242
:100138001a752c230022e254636a002bd6d03e4a5b
:10014800906a9847d2e7bb68f35c0b8593680133e4
:100158009360936898460b7e23420bd0404509d99b
:100168004b682b40012beed163469b685b009b5b81
:100178000b85ebe7304b9a685b689a42bfd32e4bee
:1001880000221a755a602b4a01211175db68002b71
:10019800b5d0294a10699847b1e727490a6a896999
:1001a8005200535215e0244a2c23d35c002baed0c6
:1001b800214b1a6adb699a42a9d21e4a138d9bb257
:1001c800516807220a40012ae7d01b4a116a92693e
:1001d8005354194b1a6a01321a621a6adb699a4235
:1001e80000d094e7144b00222c215a54da61114aaa
:1001f800583111755b6a002b00d188e70e4a906a66
:10020800984784e70c4b1b7d002b00d177e70a4bfe
:100218009a685868074b1b7edb07abd58242a9d288
:10022800054b1e68034907259c461f001a00012438
:0c02380096e7c046001c00425000002069
:020000040000fa
:1002440070b5364b1c7ee4b29b7d23423ad0a307a3
:1002540013d5334a012313709370304b5b8bdb0649
:10026400db0f53705368002b1ad091680120984714
:10027400002828d0002000f063f9630710d5284b2c
:100284005d68002d0cd000f05dfb002823d1244bc9
:1002940099680230a847002819d0002000f050f9ce
:1002a400e3070cd51e4b00221a705b68002b03d0a9
:1002b4001b4a916804209847184b01221a7664b2ad
:1002c400002c1edb70bd012000f03af9d5e70120b7
:1002d40000f036f9e4e700f03dfb002803d0104bb2
:1002e4009b78002b09d00e4eb1680320a847002349
:1002f400b370022000f024f9d2e7032000f020f9c3
:10030400cee7074b5b68002b03d0054a91680520b4
:100314009847024b80221a76d4e7c0460010004268
:04032400ac00002009
:020000040000fa
:100328001d4b00229a619a8c80218a439a841a0074
:100338001023d1680b42fcd0184b1b689b0e3f2b37
:1003480028d09b02802292001343134a9362102301
:10035800d1680b42fcd0104b02229a841a00102359
:10036800d1680b42fcd00e4b0e4a5a60c022520193
:100378009a601a0053785bb2002bfbdb084b0a4ae1
:100388005a800a4a5a800a4b0a4a1a62024b0022c9
:100398001a627047203bd4e70008004024608000c0
:1003a800000c004000070100164000001940000042
:0803b800000400409000010068
:020000040000fa
:1003c000f0b5c6461f4a204b00b50021934203d228
:1003d000197001339342fbd10b231c4a9c46083b06
:1003e00098461368546819000026214311d017005d
:1003f00091680c3700290fd11a19002c03d01e70f8
:1004000001339342fbd13a00136854681900214329
:10041000edd104bc9046f0bd6146c91a1d195118b2
:10042000002c05d05a1c505c187013009542f9d16d
:10043000434623405a1e9341a4081c19a4003f19a7
:100440003a00e1e700000020000000205004000016
:020000040000fa
:10045000800000201c00000000000000c4000020fc
:100460000400000000000000c8000020040000009c
:1004700000000000ac0000200c00000000000000a4
:10048000500000203000000000000000b8000020f4
:100490000c000000000000009c0000200f00000085
:1004a00000000000cc00002004000000000000005c
:1004b000000000205000000000000000d0000020dc
:1004c0000400000000000000000000000000000028
:020000040000fa
:1004d00070b500282fd0194b1a7d0023002a26d191
:1004e000164b1860596001321a75154b1b7edb07dd
:1004f00016d500291dd00023114c0726012507e041
:10050000c25c22850133227e2a420ad0994208d950
:1005100062683240012af3d15a00825a2285f1e7fb
:100520000023064a9360064b01229a7501231800a6
:1005300070bd0b00f5e70023f9e7c046500000202e
:04054000001c004259
:020000040000fa
:10054400002808d112494b68124a1a40c0239b0262
:1005540013434b60704701280cd0022811d00328a4
:10056400f8d10b494b680c4a1a4080239b02134371
:100574004b60efe7064a5168e023db020b4353600c
:10058400e8e7034a5168c0239b020b435360e1e749
:0c05940000100042fffff8fffffffcff1b
:020000040000fa
:1005a00000230e4a10b513600d4a13600d4a136004
:1005b0000d4a13600d4a13600d4a536213610133f3
:1005c000936000f0e7f900f0e5f90a4c0a4b9c4211
:1005d00000d310bd08cc9847f8e7c046d0000020f3
:1005e0000c00002008000020000000200400002073
:0c05f00010000020c4000000c800000043
:020000040000fa
:1005fc00bff35f8f62b6114bc12080001a581049af
:10060c001140c02212020a431a5020221a600430f0
:10061c001a581202120ac02109060a431a508022e3
:10062c0012011a6004301a5806491140c0221204f3
:10063c000a431a508022d2011a60704700e100e090
:08064c00ff00ffffffff00ffac
:020000040000fa
:10065400114b124a1a60124a9a81c02292025a60bd
:100664001a00d369002bfcd10b4a136802210b43f7
:100674001360d369002bfcd10a4b00229a61da6122
:100684001a622c215a545a621a605a609a601a7576
:10069400da60da857047c046001c0042040120403d
:0806a40056ecffff500000209e
:020000040000fa
:1006ac0070b5002000f0c0f800f0f8f80c4800f02d
:1006bc0061f900f039f900210a4800f055f90a4cab
:1006cc0025000f3500f00ef920700f212000fff7e8
:1006dc00f9fe0a2000f072f80134ac42f2d1eee7d8
:0c06ec0010270000090900009c000020fd
:020000040000fa
:1006f80010b5064c2378002b07d1054b002b02d0f0
:10070800044800e000bf0123237010bd80000020d2
:100718000000000000000000044b10b5002b03d0bf
:100728000349044800e000bf10bdc04600000000b7
:08073800840000200000000015
:020000040000fa
:1007400010b50a4b98470a4b9847fff739fe094bfb
:10075000ff229343084a9360084b9847084b9847f9
:10076000084b9847fff7a2fffee7c0469309000039
:10077000930900000000000000ed00e0a10500006a
:08078000930900009309000039
:020000040000fa
:100788000d4b01221a601a00d369002bfcd10a4bc9
:100798000a4a1a601a00d369002bfcd1064b802242
:1007a8005a6207329a751a6802210a431a601a00b7
:1007b800d369002bfcd170470010004210001000d4
:020000040000fa
:1007c80070b50e4a56681368db0715d543011b1a26
:1007d8009b001818000193680ed000211400013600
:1007e80005e0b51aeb18c9181300884204d9a268a5
:1007f8009a42f6d89b1af6e770bdc04610e000e0b2
:020000040000fa
:10080800094b5b8b5b070dd0074b80221a76793a30
:100818005a831b7e5b0705d5034b04211a8d1a7e6c
:0c0828000a42fbd17047c046001c004291
:020000040000fa
:1008340010b5094b06225a6000f022f8fff772fd4a
:1008440000f090f8fff79eff00f02cf8fff700ff90
:0c085400fff7d2fe10bdc046004000417e
:020000040000fa
:1008600010b5054b01221a73044b1b68002b02d0f4
:10087000034a1068984710bd00400041c4000020a2
:04088000c80000208c
:020000040000fa
:10088400074b01224c215a5401315a5409315a540c
:1008940035323439995405321f3999547047c0465a
:0408a40000440041cb
:020000040000fa
:1008a800054a0023136093600449516006211160d2
:1008b800034a93601360704710e000e0cf07000020
:0408c800b800002054
:020000040000fa
:1008cc0010b5064b1b68064b9a6801329a601b6880
:1008dc00002b02d0024a5068984710bd10e000e08f
:0408ec00b800002030
:020000040000fa
:1008f000044ad369002bfcd1024a2833d05cc0b231
:080900007047c04600100042e0
:020000040000fa
:1009080010b500f009f8034b9c466044431e98411b
:08091800c0b210bdbdfdffffe0
:020000040000fa
:10092000024a508b024b538318407047001000421c
:04093000430200007e
:020000040000fa
:10093400034b00229a601a6801210a431a60704727
:0409440010e000e0df
:020000040000fa
:10094800024b588b0007c00f7047c046001000428a
:020000040000fa
:10095800024b588b4007c00f7047c046001000423a
:020000040000fa
:0c096800014b80225a60704700400041a3
:020000040000fa
:0c097400014b586099607047ac000020f7
:020000040000fa
:0c0980000138014b5860704710e000e0a7
:020000040000fa
:02098c00fee784
:020000040000fa
:02098e00fee782
:020000040000fa
:02099000fee780
:020000040000fa
:020992007047ac
:020000040000fa
:020994007047aa
:020000040000fa
:0200000400807a
:0440000077c700d8a6
:020000040000fa
:0200000400807a
:044004005c00ffff5e
:00000001FF
