:020000040000fa
:10000000f03f002069070000b3090000b5090000b7
:1000100000000000000000000000000000000000e0
:10002000000000000000000000000000b109000016
:100030000000000000000000b109000041090000bc
:10004000b1090000b1090000b1090000b1090000c8
:10005000b1090000f9080000b1090000b109000071
:10006000b1090000d9000000b1090000b109000089
:10007000b1090000b109000045020000b10900000b
:10008000b1090000b1090000b1090000b109000088
:10009000b10900000000000000000000b1090000ec
:1000a000b1090000b1090000b1090000b109000068
:0800b00000000000b10900008e
:020000040000fa
:1000b800f8b5c046f8bc08bc9e4670474907000022
:1000c800f8b5c046f8bc08bc9e467047210700003a
:020000040000fa
:1000d800f0b5c64600b5574b9b7d002b17d0554a47
:1000e800137edbb2927d52b2002a13db514a137e93
:1000f800dbb2927dd20702d5db0700d582e04d4afc
:10010800137edbb2927d520701d55b074bd404bc4a
:100118009046f0bd5bb2002be8da464b5b8b0722ba
:100128001340e3d0444ce38500f0b6fb414b8422f6
:100138001a752c230022e254636a002bd6d03e4a5b
:10014800906a9847d2e7bb68f35c0b8593680133e4
:100158009360936898460b7e23420bd0404509d99b
:100168004b682b40012beed163469b685b009b5b81
:100178000b85ebe7304b9a685b689a42bfd32e4bee
:1001880000221a755a602b4a01211175db68002b71
:10019800b5d0294a10699847b1e727490a6a896999
:1001a8005200535215e0244a2c23d35c002baed0c6
:1001b800214b1a6adb699a42a9d21e4a138d9bb257
:1001c800516807220a40012ae7d01b4a116a92693e
:1001d8005354194b1a6a01321a621a6adb699a4235
:1001e80000d094e7144b00222c215a54da61114aaa
:1001f800583111755b6a002b00d188e70e4a906a66
:10020800984784e70c4b1b7d002b00d177e70a4bfe
:100218009a685868074b1b7edb07abd58242a9d288
:10022800054b1e68034907259c461f001a00012438
:0c02380096e7c04600080042b400002019
:020000040000fa
:10024400f0b5c64600b5574b9b7d002b17d0554ad9
:10025400137edbb2927d52b2002a13db514a137e25
:10026400dbb2927dd20702d5db0700d582e04d4a8e
:10027400137edbb2927d520701d55b074bd404bcdd
:100284009046f0bd5bb2002be8da464b5b8b07224d
:100294001340e3d0444ce38500f016fb414b842229
:1002a4001a752c230022e254636a002bd6d03e4aee
:1002b400906a9847d2e7bb68f35c0b859368013377
:1002c4009360936898460b7e23420bd0404509d92e
:1002d4004b682b40012beed163469b685b009b5b14
:1002e4000b85ebe7304b9a685b689a42bfd32e4b81
:1002f40000221a755a602b4a01211175db68002b04
:10030400b5d0294a10699847b1e727490a6a89692b
:100314005200535215e0244a2c23d35c002baed058
:10032400214b1a6adb699a42a9d21e4a138d9bb2e9
:10033400516807220a40012ae7d01b4a116a9269d0
:100344005354194b1a6a01321a621a6adb699a42c7
:1003540000d094e7144b00222c215a54da61114a3c
:10036400583111755b6a002b00d188e70e4a906af8
:10037400984784e70c4b1b7d002b00d177e70a4b91
:100384009a685868074b1b7edb07abd58242a9d21b
:10039400054b1e68034907259c461f001a000124cb
:0c03a40096e7c046001c0042e400002068
:020000040000fa
:1003b0001c4b00229a619a8c80218a439a841a00ed
:1003c0001023d1680b42fcd0174b1b689b0e3f2bb0
:1003d00025d09b02802292001343124a936210237d
:1003e000d1680b42fcd00f4b02229a841a001023d2
:1003f000d1680b42fcd00d4b0d4a5a601a0053785d
:100400005bb2002bfbdb094b0a4a5a800a4a5a802e
:100410000a4b0b4a1a62034b00221a627047203bb8
:10042000d7e7c0460008004024608000000c004070
:1004300000070100144000001940000000040040c3
:040440008400010033
:020000040000fa
:10044400f0b5c6461f4a204b00b50021934203d2a3
:10045400197001339342fbd10b231c4a9c46083b81
:1004640098461368546819000026214311d01700d8
:1004740091680c3700290fd11a19002c03d01e7073
:1004840001339342fbd13a001368546819002143a5
:10049400edd104bc9046f0bd6146c91a1d1951182e
:1004a400002c05d05a1c505c187013009542f9d1e9
:1004b400434623405a1e9341a4081c19a4003f1923
:1004c4003a00e1e70000002000000020d40400000e
:020000040000fa
:1004d400140100201c000000000000003c0100206a
:1004e400040000000000000040010020040000009f
:1004f4000000000000000020640000000000000074
:10050400300100200c00000000000000b4000020b6
:100514003000000000000000e40000203000000073
:10052400000000004401002004000000000000005e
:10053400640000205000000000000000480100207a
:1005440004000000000000000000000000000000a3
:020000040000fa
:1005540070b500282fd0194b1a7d0023002a26d10c
:10056400164b1860596001321a75154b1b7edb0758
:1005740016d500291dd00023114c0726012507e0bc
:10058400c25c22850133227e2a420ad0994208d9cc
:1005940062683240012af3d15a00825a2285f1e777
:1005a4000023064a9360064b01229a750123180022
:1005b40070bd0b00f5e70023f9e7c046e400002016
:0405c400001c0042d5
:020000040000fa
:1005c80000230e4a10b513600d4a13600d4a1360dc
:1005d8000d4a13600d4a13600d4a536213610133cb
:1005e800936000f0e5f900f0e3f90a4c0a4b9c42ed
:1005f80000d310bd08cc9847f8e7c0464801002052
:10060800700000206c0000206400002068000020ba
:0c06180074000020c4000000c8000000b6
:020000040000fa
:1006240010b5bff35f8f62b60f4bc12080001a581c
:100634000e4c2240c02109020a431a5020221a609b
:1006440004301a58224011431950802292001a6033
:1006540004301a5806491140c02212040a431a50a1
:100664008022d2011a6010bd00e100e0ff00ffff0c
:04067400ffff00ff85
:020000040000fa
:10067800114b124a1a60d22252429a81c022920227
:100688005a601a00d369002bfcd10b4a1368022167
:100698000b431360d369002bfcd1094b00229a61ec
:1006a800da611a622c215a545a621a605a609a60a6
:1006b8001a75da60da857047000800420401304094
:0406c800b40000205a
:020000040000fa
:1006cc00114b124a1a60d22252429a81c0229202d3
:1006dc005a601a00d369002bfcd10b4a1368022113
:1006ec000b431360d369002bfcd1094b00229a6198
:1006fc00da611a622c215a545a621a605a609a6052
:10070c001a75da60da857047001c0042040110404b
:04071c00e4000020d5
:020000040000fa
:1007200010b5064c2378002b07d1054b002b02d0c7
:10073000044800e000bf0123237010bd1401002015
:100740000000000000000000044b10b5002b03d097
:100750000349044800e000bf10bdc046000000008f
:08076000180100200000000058
:020000040000fa
:1007680010b50a4b98470a4b9847fff767fe094ba5
:10077800ff229343084a9360084b9847084b9847d1
:10078800084b984700f032f8fee7c046b70900006a
:10079800b70900000000000000ed00e0c9050000f6
:0807a800b7090000b7090000c9
:020000040000fa
:1007b00070b504000d00002815d00c4a2c23d35c22
:1007c0000020002b00d070bd00f06af8074b9c6140
:1007d000dd6100221a622c2101205854da85044b75
:1007e00084329a75efe70020ede7c046b4000020a0
:0407f00000080042bb
:020000040000fa
:1007f40070b5002000f03cf800f0c2f80a4800f0a0
:10080400cff80a4dfa24640064212800fff7ceffd4
:10081400200000f00df864212800fff799fe200065
:1008240000f006f8f0e7c0461027000000000020a2
:020000040000fa
:1008340070b50d4b5e681b68db0714d50b4b584332
:10084400094b9b6800280ed00021074c013605e0b7
:10085400b51aeb18c9181300884204d9a2689a4241
:10086400f6d89b1af6e770bd10e000e080bb0000ec
:020000040000fa
:1008740010b5094b06225a6000f072f8fff796fd96
:1008840000f088f8fff7f6fe00f046f8fff71cffcb
:0c089400fff7c6fe10bdc046004000414a
:020000040000fa
:1008a000094b5b8b5b070dd0074b80221a76793a98
:1008b0005a831b7e5b0705d5034b04211a8d1a7ed4
:0c08c0000a42fbd17047c046000800420d
:020000040000fa
:1008cc00094b5b8b5b070dd0074b80221a76793a6c
:1008dc005a831b7e5b0705d5034b04211a8d1a7ea8
:0c08ec000a42fbd17047c046001c0042cd
:020000040000fa
:1008f80010b5054b01221a73044b1b68002b02d05c
:10090800034a1068984710bd004000413c01002090
:04091800400100207a
:020000040000fa
:10091c00054a00231360936004495160062111605d
:10092c00034a93601360704710e000e07fbb000047
:04093c003001002066
:020000040000fa
:1009400010b5064b1b68064b9a6801329a601b680b
:10095000002b02d0024a5068984710bd10e000e01a
:040960003001002042
:020000040000fa
:10096400064b01224b215a540b315a543432363936
:10097400995406321d3999547047c04600440041c9
:020000040000fa
:10098400034b00229a601a6801210a431a607047d7
:0409940010e000e08f
:020000040000fa
:0c099800014b82225a6070470040004171
:020000040000fa
:0c09a4000138014b5860704710e000e083
:020000040000fa
:0209b000fee760
:020000040000fa
:0209b200fee75e
:020000040000fa
:0209b400fee75c
:020000040000fa
:0209b600704788
:020000040000fa
:0209b800704786
:020000040000fa
:0200000400807a
:0440000077c700d8a6
:020000040000fa
:0200000400807a
:044004005c00ffff5e
:00000001FF
