:020000040000fa
:10000000f83f002011030000930500009505000053
:1000100000000000000000000000000000000000e0
:10002000000000000000000000000000910500003a
:100030000000000000000000910500009d04000089
:100040009105000091050000910500009105000058
:100050009105000079040000910500009105000061
:100060009105000091050000910500009105000038
:100070009105000091050000910500009105000028
:100080009105000091050000c104000091050000e9
:100090009105000000000000000000009105000034
:1000a00091050000910500009105000091050000f8
:0800b0000000000091050000b2
:020000040000fa
:1000b800f8b5c046f8bc08bc9e467047f10200007f
:1000c800f8b5c046f8bc08bc9e467047c902000097
:020000040000fa
:1000d8001e4b00229a619a8c80218a439a841a00c6
:1000e8001023d1680b42fcd0194b1b689b0e3f2b89
:1000f8002ad09b02802292001343144a9362102351
:10010800d1680b42fcd0114b02229a841a001023aa
:10011800d1680b42fcd00f4b07221a720e4b0f4ac4
:100128005a60c02252019a601a0053785bb2002bc1
:10013800fbdb094b0a4a5a80064b842252021a6298
:10014800024b00221a627047203bd2e700080040a9
:100158002460800000040040000c004000070100fb
:040168001b40000038
:020000040000fa
:10016c00f0b5c6461f4a204b00b50021934203d27e
:10017c00197001339342fbd10b231c4a9c46083b5c
:10018c0098461368546819000026214311d01700b3
:10019c0091680c3700290fd11a19002c03d01e704e
:1001ac0001339342fbd13a00136854681900214380
:1001bc00edd104bc9046f0bd6146c91a1d19511809
:1001cc00002c05d05a1c505c187013009542f9d1c4
:1001dc00434623405a1e9341a4081c19a4003f19fe
:1001ec003a00e1e70000002000000020fc010000c4
:020000040000fa
:1001fc00500000201c0000000000000080000020c7
:10020c000400000000000000840000200400000036
:10021c00000000006c0000200c000000000000003a
:10022c00780000200800000000000000880000207a
:10023c00040000000000000000000020500000003e
:10024c00000000008c0000200400000000000000f2
:10025c000000000000000000222222222222222282
:020000040000fa
:10026c0000230e4a10b513600d4a13600d4a13603b
:10027c000d4a13600d4a13600d4a5362136101332a
:10028c00936000f083f900f081f90a4c0a4b9c4210
:10029c0000d310bd08cc9847f8e7c0468c0000206e
:1002ac000c000020080000200000002004000020aa
:0c02bc0010000020c4000000c80000007a
:020000040000fa
:1002c80010b5064c2378002b07d1054b002b02d024
:1002d800044800e000bf0123237010bd5000002037
:1002e8000000000000000000044b10b5002b03d0f4
:1002f8000349044800e000bf10bdc04600000000ec
:08030800540000200000000079
:020000040000fa
:1003100010b50a4b98470a4b9847fff727ff094b40
:10032000ff229343084a9360084b9847084b98472d
:10033000084b984700f072f8fee7c04697050000aa
:10034000970500000000000000ed00e06d020000d5
:0803500097050000970500006d
:020000040000fa
:10035800bff35f8f62b60c4bc12080001a580b495f
:100368001140c02212020a431a5020221a600c308f
:100378001a5807491140c02212040a431a50802211
:10038800d2021a607047c04600e100e0ff00ffff9c
:04039800ffff00ff64
:020000040000fa
:10039c000d4b01221a801a00d37b5bb2002bfbdbc6
:1003ac00094bac22d2001a80084a1a833b229a735a
:1003bc00074a0021116001225a731a00d37b5bb2e9
:1003cc00002bfbdb7047c046002c004224f4ffffdf
:0403dc007800002085
:020000040000fa
:1003e00070b50d4b5e681b68db0713d50301181a47
:1003f000094b9b680ed00021074c013605e0b51a69
:10040000eb18c9181300884204d9a2689a42f6d89a
:0c0410009b1af6e770bdc04610e000e04b
:020000040000fa
:10041c0010b5002000f016f800f098f8064800f02f
:10042c00a5f800f087f80021044800f0a5f804496d
:10043c00942204238b50fde71027000005050000d3
:04044c000044004127
:020000040000fa
:1004500010b5084b06225a6000f064f8fff73cfe26
:1004600000f084f800f03ef8fff798fffff774ff04
:0804700010bdc0460040004130
:020000040000fa
:1004780010b5054b01221a73044b1b68002b02d0e0
:10048800034a1068984710bd0040004180000020d2
:0404980084000020bc
:020000040000fa
:10049c0010b5064b1b68064b9a6801329a601b68b4
:1004ac00002b02d0024a5068984710bd10e000e0c3
:0404bc006c000020b0
:020000040000fa
:1004c00010b5064b987bc0b23b229a73044b1b6855
:1004d000002b02d0024a5168984710bd002c004200
:0404e0007800002080
:020000040000fa
:1004e400054a0023136093600f215160093911609c
:1004f400024a93601360704710e000e06c00002033
:020000040000fa
:1005040010b5054a98230421d1506420fff766fff3
:10051400024b3b229a7310bd00440041002c004260
:020000040000fa
:10052400054b802204219950423202319954113ae8
:0c053400002199547047c046004400416b
:020000040000fa
:10054000044a138802210b431380d37b5bb2002b38
:08055000fbdb7047002c0042a8
:020000040000fa
:10055800034b00229a601a6801210a431a60704707
:0405680010e000e0bf
:020000040000fa
:0c056c00014b80225a60704700400041a3
:020000040000fa
:0c0578000138014b5860704710e000e0b3
:020000040000fa
:0c058400014b186059607047780000209f
:020000040000fa
:02059000fee784
:020000040000fa
:02059200fee782
:020000040000fa
:02059400fee780
:020000040000fa
:020596007047ac
:020000040000fa
:020598007047aa
:020000040000fa
:0200000400807a
:0440000077c700d8a6
:020000040000fa
:0200000400807a
:044004005c00ffff5e
:00000001FF
