:020000040000fa
:10000000f83f0020050300006705000069050000b7
:1000100000000000000000000000000000000000e0
:100020000000000000000000000000006505000066
:10003000000000000000000065050000d104000081
:100040006505000065050000650500006505000008
:1000500065050000890400006505000065050000d5
:1000600065050000650500006505000065050000e8
:1000700065050000650500006505000065050000d8
:100080006505000065050000f50400006505000039
:10009000650500000000000000000000650500008c
:1000a00065050000650500006505000065050000a8
:0800b0000000000065050000de
:020000040000fa
:1000b800f8b5c046f8bc08bc9e467047e50200008b
:1000c800f8b5c046f8bc08bc9e467047bd020000a3
:020000040000fa
:1000d800f0b5c6461f4a204b00b50021934203d213
:1000e800197001339342fbd10b231c4a9c46083bf1
:1000f80098461368546819000026214311d0170048
:1001080091680c3700290fd11a19002c03d01e70e2
:1001180001339342fbd13a00136854681900214314
:10012800edd104bc9046f0bd6146c91a1d1951189d
:10013800002c05d05a1c505c187013009542f9d158
:10014800434623405a1e9341a4081c19a4003f1992
:100158003a00e1e70000002000000020f001000064
:020000040000fa
:100168001b4b00229a619a8c80218a439a841a0038
:100178001023d1680b42fcd0164b1b689b0e3f2bfb
:1001880024d09b02802292001343114a93621023c9
:10019800d1680b42fcd00e4b02229a841a0010231d
:1001a800d1680b42fcd00c4b0c4a5a601a005378a9
:1001b8005bb2002bfbdb084b094a5a80094b8422af
:1001c80052021a62024b00221a627047203bd8e79b
:1001d8000008004024608000000c00400007010077
:0801e8001b4000000004004070
:020000040000fa
:1001f000500000201c0000000000000080000020d3
:100200000400000000000000840000200400000042
:10021000000000006c0000200c0000000000000046
:100220007800002008000000000000008800002086
:10023000040000000000000000000020500000004a
:10024000000000008c0000200400000000000000fe
:10025000000000000000000022222222222222228e
:020000040000fa
:1002600000230e4a10b513600d4a13600d4a136047
:100270000d4a13600d4a13600d4a53621361013336
:10028000936000f073f900f071f90a4c0a4b9c423c
:1002900000d310bd08cc9847f8e7c0468c0000207a
:1002a0000c000020080000200000002004000020b6
:0c02b00010000020c4000000c800000086
:020000040000fa
:1002bc0010b5064c2378002b07d1054b002b02d030
:1002cc00044800e000bf0123237010bd5000002043
:1002dc000000000000000000044b10b5002b03d000
:1002ec000349044800e000bf10bdc04600000000f8
:0802fc00540000200000000086
:020000040000fa
:1003040010b50a4b98470a4b9847fff7e3fe094b91
:10031400ff229343084a9360084b9847084b984739
:10032400084b984700f09af8fee7c0466b050000ba
:100334006b0500000000000000ed00e06102000019
:080344006b0500006b050000d1
:020000040000fa
:10034c00bff35f8f62b60c4bc12080001a580b496b
:10035c001140c02212020a431a5020221a600c309b
:10036c001a5807491140c02212040a431a5080221d
:10037c00d2021a607047c04600e100e0ff00ffffa8
:04038c00ffff00ff70
:020000040000fa
:1003900070b50d4b5e681b68db0714d50b4b5843db
:1003a000094b9b6800280ed00021074c013605e060
:1003b000b51aeb18c9181300884204d9a2689a42ea
:1003c000f6d89b1af6e770bd10e000e080bb000095
:020000040000fa
:1003d0000c4b01221a801a00d37b5bb2002bfbdb93
:1003e000084b60221a80084a1a833b229a73074af4
:1003f0000021116001225a731a00d37b5bb2002bdb
:10040000fbdb7047002c004280bbffff7800002020
:020000040000fa
:1004100010b5084b06225a6000f07ef8fff7a4fee4
:1004200000f094f800f042f8fff7d2fffff78effdc
:0804300010bdc0460040004170
:020000040000fa
:1004380010b5064a94230421d1500548fff7a4ffbc
:10044800044a937b01210b43937310bd0044004180
:08045800b80b0000002c00426b
:020000040000fa
:1004600010b50020fff7d4ff00f064f8044a982389
:100470000421d1500021034800f06ef8fee7c04689
:080480000044004139040000b2
:020000040000fa
:1004880010b5054b01221a73044b1b68002b02d0d0
:10049800034a1068984710bd0040004180000020c2
:0404a80084000020ac
:020000040000fa
:1004ac00054a0023136093600449516006211160d2
:1004bc00034a93601360704710e000e07fbb0000bc
:0404cc006c000020a0
:020000040000fa
:1004d00010b5064b1b68064b9a6801329a601b6880
:1004e000002b02d0024a5068984710bd10e000e08f
:0404f0006c0000207c
:020000040000fa
:1004f40010b5064b987bc0b23b229a73044b1b6821
:10050400002b02d0024a5168984710bd002c0042cb
:04051400780000204b
:020000040000fa
:10051800054b802204219950423202319954113af4
:0c052800002199547047c0460044004177
:020000040000fa
:10053400044a138802210b431380d37b5bb2002b44
:08054400fbdb7047002c0042b4
:020000040000fa
:0c054c00014b82225a60704700400041c1
:020000040000fa
:0c055800014b18605960704778000020cb
:020000040000fa
:02056400fee7b0
:020000040000fa
:02056600fee7ae
:020000040000fa
:02056800fee7ac
:020000040000fa
:02056a007047d8
:020000040000fa
:02056c007047d6
:020000040000fa
:0200000400807a
:0440000077c700d8a6
:020000040000fa
:0200000400807a
:044004005c00ffff5e
:00000001FF
