:020000040000fa
:10000000f03f00200d030000c5040000c7040000fd
:1000100000000000000000000000000000000000e0
:10002000000000000000000000000000c304000009
:100030000000000000000000c304000029040000cc
:10004000c3040000c3040000c3040000c304000094
:10005000c3040000e1030000c3040000c304000067
:10006000c3040000c3040000c3040000c304000074
:10007000c3040000c3040000c3040000c304000064
:10008000c3040000c3040000c3040000c304000054
:10009000c30400000000000000000000c3040000d2
:1000a000c3040000c3040000c3040000c304000034
:0800b00000000000c304000081
:020000040000fa
:1000b800f8b5c046f8bc08bc9e467047ed02000083
:1000c800f8b5c046f8bc08bc9e467047c50200009b
:020000040000fa
:1000d8001c4b00229a619a8c80218a439a841a00c8
:1000e8001023d1680b42fcd0174b1a68920e3f2a96
:1000f80026d0164b1b689b059b0d92021343114a91
:1001080093621023d1680b42fcd00e4b02229a84d2
:100118001a001023d1680b42fcd00d4b0d4a5a60cf
:100128001a0053785bb2002bfbdb094b0a4a5a8052
:100138000a4ba022d2021a62024b00221a627047ae
:10014800203ad6e70008004024608000286080003c
:10015800000c00400007010021400000000400409e
:020000040000fa
:10016800f0b5c6461f4a204b00b50021934203d282
:10017800197001339342fbd10b231c4a9c46083b60
:1001880098461368546819000026214311d01700b7
:1001980091680c3700290fd11a19002c03d01e7052
:1001a80001339342fbd13a00136854681900214384
:1001b800edd104bc9046f0bd6146c91a1d1951180d
:1001c800002c05d05a1c505c187013009542f9d1c8
:1001d800434623405a1e9341a4081c19a4003f1902
:1001e8003a00e1e70000002000000020f8010000cc
:020000040000fa
:1001f800500000201c0000000000000078000020d3
:1002080004000000000000007c0000200400000042
:10021800000000006c0000200c000000000000003e
:10022800800000200400000000000000840000207e
:100238000400000000000000000000205000000042
:1002480000000000880000200400000000000000fa
:100258000000000000000000222222222222222286
:020000040000fa
:1002680000230e4a10b513600d4a13600d4a13603f
:100278000d4a13600d4a13600d4a5362136101332e
:10028800936000f01ef900f01cf90a4c0a4b9c42de
:1002980000d310bd08cc9847f8e7c0468800002076
:1002a8000c000020080000200000002004000020ae
:0c02b80010000020c4000000c80000007e
:020000040000fa
:1002c40010b5064c2378002b07d1054b002b02d028
:1002d400044800e000bf0123237010bd500000203b
:1002e4000000000000000000044b10b5002b03d0f8
:1002f4000349044800e000bf10bdc04600000000f0
:0803040054000020000000007d
:020000040000fa
:10030c0010b50a4b98470a4b9847fff727ff094b44
:10031c00ff229343084a9360084b9847084b984731
:10032c00084b984700f010f8fee7c046c9040000df
:10033c00c90400000000000000ed00e069020000ac
:08034c00c9040000c90400000f
:020000040000fa
:10035400f8b5002000f018f800f09af8084800f00a
:10036400a7f8084e0024250037003560200080b22d
:1003740000f078f83b68581c3860fe28f5dcf6e796
:0803840010270000800000209a
:020000040000fa
:10038c0010b5094b06225a6000f074f8fff79efe78
:10039c0000f084f800f08ef800f02ef800f050f821
:0c03ac0000f004f810bdc0460040004105
:020000040000fa
:1003b800bff35f8f62b6064bc12080001a5805490b
:1003c8001140c02212020a431a5020221a607047b4
:0803d80000e100e0ff00ffff5f
:020000040000fa
:1003e00010b5054b01221a73044b1b68002b02d079
:1003f000034a1068984710bd004000417800002073
:040400007c0000205c
:020000040000fa
:10040400054a00231360936004495160062111607a
:10041400034a93601360704710e000e07fbb000064
:040424006c00002048
:020000040000fa
:1004280010b5064b1b68064b9a6801329a601b6828
:10043800002b02d0024a5068984710bd10e000e037
:040448006c00002024
:020000040000fa
:10044c00054b01225a7000229a7002321a701a005f
:0c045c00d379002bfcd17047004800420f
:020000040000fa
:100468008005800d034b18811a00d379002bfcd12d
:080478007047c0460048004235
:020000040000fa
:10048000034b012242215a5411395a547047c04635
:0404900000440041e3
:020000040000fa
:10049400034b00229a601a6801210a431a607047cc
:0404a40010e000e084
:020000040000fa
:0c04a800014b82225a6070470040004166
:020000040000fa
:0c04b4000138014b5860704710e000e078
:020000040000fa
:0204c000704783
:020000040000fa
:0204c200fee753
:020000040000fa
:0204c400fee751
:020000040000fa
:0204c600fee74f
:020000040000fa
:0204c80070477b
:020000040000fa
:0204ca00704779
:020000040000fa
:0200000400807a
:0440000077c700d8a6
:020000040000fa
:0200000400807a
:044004005c00ffff5e
:00000001FF
