:020000040000fa
:10000000f83f0020190a0000570c0000af0c000058
:1000100000000000000000000000000000000000e0
:10002000000000000000000000000000db070000ee
:100030000000000000000000db070000bd0d000014
:10004000db070000db070000db070000db07000028
:10005000db070000510d0000db070000db0700009c
:10006000db070000db070000db070000db07000008
:10007000db070000db070000db070000db070000f8
:10008000db070000db070000db070000db070000e8
:10009000db0700000000000000000000db0700009c
:1000a000db070000db070000db070000db070000c8
:0800b00000000000db07000066
:020000040000fa
:1000b800f8b5c046f8bc08bc9e467047b1090000b8
:1000c800f8b5c046f8bc08bc9e46704789090000d0
:020000040000fa
:1000d800680700201c00000000000000a80700209e
:1000e8000400000000000000ac070020040000002d
:1000f800000000008407002010000000010000003c
:1001080048415244494b205052414a415041544978
:10011800940700200c00000000000000b007002039
:100128000400000000000000f80600205000000055
:100138000000000018060020780000000100000000
:1001480028060020200600202806002000000000c5
:100158000000000025000000080000200004000046
:100168000000000000000000000000000000000087
:100178000000000000000000000000000000000077
:100188005d0f0000000000000000000000000000fb
:100198000000000017070000000000000000000039
:1001a8000000000000000000000000000000000047
:1001b800000000000000000000000020080400000b
:1001c8000000000048070020200000000100000097
:1001d8000100000003000000000000000000000013
:1001e800000000000000000000000000a007002040
:1001f800a00700200800000000000000b40700204d
:1002080004000000000000000804002010020000a4
:1002180000000000900600206800000001000000b7
:1002280001000000030000000000000000000000c2
:100238000000000000000000000000007b07000034
:10024800000000000000000000000000410f000056
:10025800bb0e0000000000000000000000000000cd
:100268000000000000000000000000000000000086
:100278000000000000000000000000000000000076
:100288000000000000000000b80700200400000083
:1002980000000000bc07002004000000000000006f
:1002a8000000000000000000222222222222222236
:020000040000fa
:1002b800f0b587b0039003a800f010fc002802da1c
:1002c800002007b0f0bd039b1b095d1e202d09d936
:1002d8004f49023b4f4a8b4224d8db08d318043bd2
:1002e8001d7801352a000120002100f0cbfd0024f3
:1002f80043428c4100930194474f00983a687b68c9
:100308001040020001990b401a433fd1039b05a8f6
:100318001033059300f0c2fd002809d10c223f4b91
:100328001a60cee7db09d318043b1d781135d9e7ed
:100338003b490c68a04206d0059b0400103b05937e
:100348000123103483600125059be2180a602b43c2
:10035800083a083c28c26360002cb1d0200000f0a5
:100368002ffc00280bd023686168ab43e31a5a6856
:10037800aa4352185a606168a94362501c002000c1
:10038800039900f0cdfc200008309ae7214a25495e
:100398003c32002831d1584203404b43db0ed65c37
:1003a8002036300000f02afd731cdb00fc58083ba7
:1003b800fb189c42a0d0272e25dd0235ae4201dc79
:1003c8003f2e20d101226368039f9343dd1b280041
:1003d800009300f0a3fb864215d1e268a168e319f7
:1003e800da60996093609a68d360012217431f60ae
:1003f8005d60009be5506760c1e7434203404b43a3
:10040800db0ed65ccde73100200000f091fab6e7ac
:10041800ff0100003808000010040020b807002081
:080428000804002029e66b071f
:020000040000fa
:10043000f7b5002858d00838436801221e009643bb
:1004400085192a680400934200d0ffde01276b68fb
:10045000226813403b420ed1200000f0b5fb00287b
:1004600043d1280000f0e0fb0028f0d06b68bb43cc
:10047000f618ed18ebe73b003343636030002b6068
:1004800000f050fb019000f0bdfc6b682268134047
:100490003b42e1d0184b019a1868596800f0eafc19
:1004a000384212d1019a0120002100f0effc0b002c
:1004b000002804d0104a126802430f480260002b43
:1004c00003d00d4a53680b435360019b0a4a013322
:1004d000db00d3181a005b68083a66602e60e360a0
:1004e000a260d460e3689c60f7bd2368bb43e41a54
:0c04f0006368bb43f618b4e7100400205a
:020000040000fa
:1004fc00f0b5c6461f4a204b00b50021934203d2eb
:10050c00197001339342fbd10b231c4a9c46083bc8
:10051c0098461368546819000026214311d017001f
:10052c0091680c3700290fd11a19002c03d01e70ba
:10053c0001339342fbd13a001368546819002143ec
:10054c00edd104bc9046f0bd6146c91a1d19511875
:10055c00002c05d05a1c505c187013009542f9d130
:10056c00434623405a1e9341a4081c19a4003f196a
:10057c003a00e1e70000002000000020d800000055
:020000040000fa
:10058c001b4b00229a619a8c80218a439a841a0010
:10059c001023d1680b42fcd0164b1b689b0e3f2bd3
:1005ac0023d09b02802292001343114a93621023a2
:1005bc00d1680b42fcd00e4b02229a841a001023f5
:1005cc00d1680b42fcd00c4b0c4a5a601a00537881
:1005dc005bb2002bfbdb084b094a5a80094b0a4ad9
:1005ec001a62034b00221a627047203bd9e7c046bf
:1005fc000008004024608000000c0040000701004f
:0c060c00194000000004004080000100c4
:020000040000fa
:10061800f0b51600050002278369426987b0029386
:10062800d31a03939b1904910596019302ac3a00df
:100638002100286800f060fb019b984208d1ab6854
:10064800ea68ab619a18aa626b61300007b0f0bd26
:1006580000280cda102200236968ab620a43ab61f8
:100668006b616a60022f12d06368f61aede7019b8e
:100678001b1a01936368984202d9c01a0834013fd3
:1006880023681b1823606368181a6060cfe71e0090
:02069800dbe79e
:020000040000fa
:10069a00f8b5846a05000f001600002c0ad0ab6a70
:1006aa006a699b1ab3420cd2320039002800fff75c
:1006ba00aeff05e000f0bffb03002000002beed0e8
:1006ca00f8bd002ef0d02b0034331b785bb2002b20
:1006da001adb3400dbb2621eb95c994212d12200e5
:1006ea0039002800fff793ffa042e9d33f19341bd2
:1006fa0022003900686900f0f9fb6b6930001c19a7
:0c070a006c61dde7141ee6d13400f1e75d
:020000040000fa
:100716007fb51600c2680d0013000091591e8b416b
:10072600f31a019383680400039269460222006863
:10073600029300f0cefa002808dc182208230240b3
:100746005340626813436360060010e0019b8342d6
:10075600fad2a268c01ae3681018e2632064002b7c
:1007660005d0531ce3631378ad19013d2b7030009f
:0407760004b070bd9e
:020000040000fa
:10077a0037b504000d00002801d100203ebd4368b2
:10078a009b0607d543698269934217d80023a3625f
:10079a00a3616361e26b236c9a4206d20121d21ae9
:1007aa00d3170091206800f0d8fb00232364e36389
:1007ba009d42e2d0206800f0c8fbdfe70022c36a4e
:1007ca00110098476369002be0d101204042d5e728
:020000040000fa
:0207da00fee738
:020000040000fa
:1007dc0000230e4a10b513600d4a13600d4a1360c6
:1007ec000d4a13600d4a13600d4a536213610133b5
:1007fc00936000f08bfb00f0fefa0a4c0a4b9c4213
:10080c0000d310bd08cc9847f8e7c046b4070020c9
:10081c000407002000070020f8060020fc0600203a
:0c082c0008070020c4000000c800000005
:020000040000fa
:10083800202122232424252526262727282828285e
:10084800292929292a2a2a2a2b2b2b2b2c2c2c2cf8
:100858002c2c2c2c2d2d2d2d2d2d2d2d2e2e2e2ec0
:100868002e2e2e2e2f2f2f2f2f2f2f2f0001170236
:100878001d1813031e1b190b1408040d1f161c1238
:0c0888001a0a070c1511090610050f0ec6
:020000040000fa
:10089400f8b505000c000020002d20d000f0daf996
:1008a400002c17d000200e4a0421072605e0178dde
:1008b4004300ef52013084420dd0137e0b42fcd032
:1008c400538b334207d153683340012befd0138d40
:1008d4002b54efe72000201a44426041c0b2f8bd17
:0408e400001c0042b2
:020000040000fa
:1008e80070b5040016001d00022a1cd043689b0640
:1008f80019d4002908d1002d01d18025ed00280048
:100908000830fff7d5fc010020236268a16013437b
:1009180063602300e5603433ff22012e00d10a22f0
:100928001a70024be362002070bdc0469b060000af
:020000040000fa
:1009380070b5c668856804000a00ae4211d101206e
:10094800002100f09ffac043c943431c03d00b4b5e
:100958001a68104018604b1c03d0084a53681940a5
:100968005160012319006268b56011439a43ee6033
:100978006160a41822681343236070bd100400202e
:020000040000fa
:1009880010b5064c2378002b07d1054b002b02d05d
:10099800044800e000bf0123237010bd6807002051
:1009a8000000000000000000044b10b5002b03d02d
:1009b8000349044800e000bf10bdc0460000000025
:0809c8006c0700200000000094
:020000040000fa
:1009d00010b50e4b06225a600d4b1b68186800219b
:1009e00000f080fa0b4b1b681868002100f07afabf
:1009f00000f0c0f9fff7cafd00f096fa00f0ccf95c
:100a000000f0c8f800f054f910bdc04600400041a5
:080a10001c0600206407002011
:020000040000fa
:100a180010b50a4b98470a4b9847fff76bfd094bef
:100a2800ff229343084a9360084b9847084b98471e
:100a3800084b984700f090f8fee7c0464f0d0000bd
:100a48004f0d00000000000000ed00e0dd07000091
:080a58004f0d00004f0d0000de
:020000040000fa
:100a600070b5002818d0002918d000250c4a0124a0
:100a7000072605e06b00c35a13850135a94209d04a
:100a8000137e2342fcd053683340012bf2d0435de8
:100a90001385f2e7012070bd0020fce70120fae792
:040aa000001c0042f4
:020000040000fa
:100aa40070b50d4b5e681b68db0714d50b4b5843c0
:100ab400094b9b6800280ed00021074c013605e045
:100ac400b51aeb18c9181300884204d9a2689a42cf
:100ad400f6d89b1af6e770bd10e000e080bb00007a
:020000040000fa
:100ae4000c4a036810b5546a0b4a591e121b9142f2
:100af4000bd9002b05d00c220120084b40421a6070
:100b040010bd102202600020fae70f22173393432e
:100b14000360f8e708070020efffff7fb807002015
:020000040000fa
:100b24000309013b1800202b07d90a4a934205d830
:100b34000948db08c318043b18787047e0223f20bb
:100b440052019342f9d80448db09c318043b1878ce
:0c0b54001030f2e7ff010000380800003c
:020000040000fa
:100b600010b50020fff734ff00f0a8f9074800f0a7
:100b7000e1f900f073f900f0c7f9054c10212000ed
:100b8000fff76effc820fff78dfff7e71027000083
:040b900084070020b6
:020000040000fa
:100b94000a4b0b4a1a60d22252429a81c022920214
:100ba4005a601a00d369002bfcd1044a136802214d
:100bb4000b431360d369002bfcd17047001c004227
:040bc40004013040b8
:020000040000fa
:100bc800f8b5050001262c68344201d000200ee05b
:100bd8002000fff7a3ff070000f010f92868a042e3
:100be800f1d1b043281a3900fff7a2fe0120f8bd61
:020000040000fa
:100bf800084a1368002b09d007491818884202d8f8
:100c080010601800704701235b42fae7034b13603a
:100c1800f2e7c046bc070020c8090020c80700202a
:020000040000fa
:100c2800f8b5050001276c683c4201d000200de0b2
:100c38002000fff773ff060000f0e0f86b68a3429e
:0e0c4800f1d128003100fff773fe0120f8bd46
:020000040000fa
:020c5600fee7b7
:020000040000fa
:100c5800094b5b8b5b070dd0074b80221a76793adc
:100c68005a831b7e5b0705d5034b04211a8d1a7e18
:0c0c78000a42fbd17047c046001c00423d
:020000040000fa
:100c8400020000234832d356591e0b431370042329
:100c94004268134005d010231343436001204042af
:0a0ca40070470364c3631800fae709
:020000040000fa
:020cae00fee75f
:020000040000fa
:100cb000bff35f8f62b6064bc12080001a5805490a
:100cc0001140c02212020a431a5020221a607047b3
:080cd00000e100e0ff00ffff5e
:020000040000fa
:100cd800f7b5002507000c002e000192019b9e42eb
:100ce80001db2800febd62682168380000f074f856
:080cf80001362d180834f1e764
:020000040000fa
:100d0000f7b5002507000c002e000192019b9e42c2
:100d100001db2800febd62682168380000f082f81f
:080d200001362d180834f1e73b
:020000040000fa
:100d2800012370b544689c43651a102d0ad94218ee
:100d380019432b431160536008320351416010007e
:060d4800fff772fb70bd15
:020000040000fa
:020d4e007047ec
:020000040000fa
:100d500010b5054b01221a73044b1b68002b02d0ff
:100d6000034a1068984710bd00400041a8070020c2
:040d7000ac070020ac
:020000040000fa
:100d7400074b8022d2031a60032256215a541b398e
:100d84005a54d4323a3999541c3a2f3199547047f1
:040d940000440041d6
:020000040000fa
:100d9800054a0023136093600449516006211160dd
:100da800034a93601360704710e000e07fbb0000c7
:040db800940700207c
:020000040000fa
:100dbc0010b5064b1b68064b9a6801329a601b688b
:100dcc00002b02d0024a5068984710bd10e000e09a
:040ddc009407002058
:020000040000fa
:100de00010b50c000023002809d10300002a06d00a
:100df00001212000fff74efd0028f9d00123180043
:020e000010bd23
:020000040000fa
:020e0200704737
:020000040000fa
:100e0400064b0130c000c258002a05d10200083a3e
:100e1400d21819184a60c2507047c0461004002006
:020000040000fa
:100e240070b50d001400012801d0200070bd210010
:0c0e34002800fff713fe0028f9d0f6e7b5
:020000040000fa
:100e400010b50400fff71eff002805d1a368e26873
:0a0e5000a36163619b18a36210bd4b
:020000040000fa
:020e5a007047df
:020000040000fa
:100e5c00044a516880235b020b435360d369002b17
:080e6c00fcd17047001c00429c
:020000040000fa
:100e7400d0400b1cd1409c46203ad34018435242e8
:100e840063469340184370479140031c90409c462e
:100e9400203a9340194352426346d3401943704762
:020000040000fa
:100ea400006810b5002801da002010bdfff7a2fe8b
:060eb400431cfad1f8e72f
:020000040000fa
:020eba0070477f
:020000040000fa
:100ebc00034b00229a601a6801210a431a6070479a
:040ecc0010e000e052
:020000040000fa
:100ed00010b500f03bf8024b1860586010bdc046da
:040ee000a007002047
:020000040000fa
:100ee4004a424a41802310b55200db00fff7fafc66
:020ef40010bd2f
:020000040000fa
:100ef600002310b59a4200d110bdcc5cc454013316
:020f0600f8e70a
:020000040000fa
:100f0800024b187e012318407047c046001c00425f
:020000040000fa
:100f180010b5fff7d9fffff79cfffff79aff10bd49
:020000040000fa
:0c0f2800014b82225a60704700400041db
:020000040000fa
:0c0f34000138014b5860704710e000e0ed
:020000040000fa
:0a0f400010b50068fff76eff10bd4a
:020000040000fa
:080f4c000048704790060020e8
:020000040000fa
:080f5400012040427047c04635
:020000040000fa
:060f5c0000200021704797
:020000040000fa
:040f640000207047b2
:020000040000fa
:0200000400807a
:0440000077c700d8a6
:020000040000fa
:0200000400807a
:044004005c00ffff5e
:00000001FF
