:020000040000fa
:10000000f83f0020c5030000ef050000f1050000e7
:1000100000000000000000000000000000000000e0
:10002000000000000000000000000000ed050000de
:100030000000000000000000ed0500007505000054
:10004000ed050000ed050000ed050000ed050000e8
:100050007d0300002d050000ed050000ed0500000a
:10006000ed050000ed050000ed050000ed050000c8
:10007000ed050000ed050000ed050000ed050000b8
:10008000ed050000ed050000ed050000ed050000a8
:10009000ed0500000000000000000000ed0500007c
:1000a000ed050000ed050000ed050000ed05000088
:0800b00000000000ed05000056
:020000040000fa
:1000b800f8b5c046f8bc08bc9e4670475d03000012
:1000c800f8b5c046f8bc08bc9e467047350300002a
:020000040000fa
:1000d800f0b5c6461f4a204b00b50021934203d213
:1000e800197001339342fbd10b231c4a9c46083bf1
:1000f80098461368546819000026214311d0170048
:1001080091680c3700290fd11a19002c03d01e70e2
:1001180001339342fbd13a00136854681900214314
:10012800edd104bc9046f0bd6146c91a1d1951189d
:10013800002c05d05a1c505c187013009542f9d158
:10014800434623405a1e9341a4081c19a4003f1992
:100158003a00e1e7000000200000002068020000eb
:020000040000fa
:1001680010b51e4a137801210b43137053785bb204
:10017800002bfbdb194980235b048b610023cb61d7
:100188004033cb60164b10221a721a7520201a546d
:100198000c301a540c301a540c301a540c300624f3
:1001a8001c540c301a540c301a540c301a540c309d
:1001b8001a540c301a540c301a540c301a540c308f
:1001c8001a540c301a540b78022213430b700a008d
:1001d80053785bb2002bfbdb10bdc0460018004013
:0401e80000000020f3
:020000040000fa
:1001ec00194b00229a619a8c80218a439a841a00b6
:1001fc001023d1680b42fcd0144b1b689b0e3f2b79
:10020c0020d09b028022920013430f4a936210234a
:10021c00d1680b42fcd00c4b02229a841a0010239a
:10022c00d1680b42fcd00a4b0a4a5a601a00537828
:10023c005bb2002bfbdb064b074a5a80024b0022b9
:10024c001a627047203bdce7000800402460800005
:0c025c00000c00400007010005400000fd
:020000040000fa
:10026800100100201c000000000000000000002019
:10027800c000000000000000380100200400000059
:10028800000000003c010020040000000000000005
:100298002c0100200c00000000000000400100209c
:1002a8000400000000000000c00000205000000012
:1002b80000000000440100200400000000000000cd
:1002c8000000000000000000222222222222222216
:020000040000fa
:1002d80000230e4a10b513600d4a13600d4a1360cf
:1002e8000d4a13600d4a13600d4a536213610133be
:1002f800936000f07bf900f079f90a4c0a4b9c42b4
:1003080000d310bd08cc9847f8e7c0464401002048
:10031800cc000020c8000020c0000020c40000203d
:0c032800d0000020c4000000c80000004d
:020000040000fa
:1003340010b5064c2378002b07d1054b002b02d0b7
:10034400044800e000bf0123237010bd1001002009
:100354000000000000000000044b10b5002b03d087
:100364000349044800e000bf10bdc046000000007f
:0803740014010020000000004c
:020000040000fa
:10037c00f0b5c64600b50e4d00240e4f012398462d
:10038c0004e03e6101340c35102c0ed02a7ae3b215
:10039c009a42f7d13b694646a6401e42f2d02b68e2
:1003ac00002beed068689847ebe704bc9046f0bd94
:0803bc000000002000180040c1
:020000040000fa
:1003c40010b50a4b98470a4b9847fff783fe094b31
:1003d400ff229343084a9360084b9847084b984779
:1003e400084b984700f04cf8fee7c046f3050000c0
:1003f400f30500000000000000ed00e0d902000059
:08040400f3050000f305000000
:020000040000fa
:10040c0070b50d4b5e681b68db0714d50b4b58435e
:10041c00094b9b6800280ed00021074c013605e0e3
:10042c00b51aeb18c9181300884204d9a2689a426d
:10043c00f6d89b1af6e770bd10e000e080bb000018
:020000040000fa
:10044c00bff35f8f62b60a4bc12189005a58ff2057
:10045c0082433f3802435a5010221a605a580548ba
:10046c001040c022120202435a5020221a607047d8
:08047c0000e100e0ff00ffffba
:020000040000fa
:1004840010b5002000f03cf800f090f8064800f0a9
:10049400a5f8064c062000f093f80022210006205f
:1004a40000f006f8f6e7c0461027000099050000a2
:020000040000fa
:1004b40030b543001b189b00064ce3181b7a83429b
:1004c40000d030bd43001d18ad00295160194260b1
:0804d400f7e7c046000000201c
:020000040000fa
:1004dc00084b802212041a6052001a614622012134
:1004ec009954113201319954002231315a54083146
:0804fc005a547047004400410e
:020000040000fa
:1005040010b5084b06225a60fff7e6fffff76cfeb2
:1005140000f05ef800f01af8fff724fefff794ffee
:0805240010bdc046004000417b
:020000040000fa
:10052c0010b5054b01221a73044b1b68002b02d02b
:10053c00034a1068984710bd004000413801002064
:04054c003c0100204e
:020000040000fa
:10055000054a00231360936004495160062111602d
:10056000034a93601360704710e000e07fbb000017
:040570002c0100203a
:020000040000fa
:1005740010b5064b1b68064b9a6801329a601b68db
:10058400002b02d0024a5068984710bd10e000e0ea
:040594002c01002016
:020000040000fa
:1005980010b5044b802212049a61fa208000fff7fc
:0805a80031ff10bd00440041c9
:020000040000fa
:1005b000034b00229a601a6801210a431a607047af
:0405c00010e000e067
:020000040000fa
:1005c40001238340014ad3607047c04600180040ad
:020000040000fa
:0c05d400014b82225a6070470040004139
:020000040000fa
:0c05e0000138014b5860704710e000e04b
:020000040000fa
:0205ec00fee728
:020000040000fa
:0205ee00fee726
:020000040000fa
:0205f000fee724
:020000040000fa
:0205f200704750
:020000040000fa
:0205f40070474e
:020000040000fa
:0200000400807a
:0440000077c700d8a6
:020000040000fa
:0200000400807a
:044004005c00ffff5e
:00000001FF
