:020000040000fa
:10000000f03f0020790700007d0900007f09000013
:1000100000000000000000000000000000000000e0
:100020000000000000000000000000005709000070
:10003000000000000000000057090000ed0800006b
:100040005709000057090000570900005709000030
:1000500057090000c90800005709000057090000af
:100060005709000057090000450200005709000029
:100070005709000057090000d90000005709000087
:1000800057090000570900005709000057090000f0
:1000900057090000000000000000000057090000a0
:1000a00057090000570900005709000057090000d0
:0800b0000000000057090000e8
:020000040000fa
:1000b800f8b5c046f8bc08bc9e4670475907000012
:1000c800f8b5c046f8bc08bc9e467047310700002a
:020000040000fa
:1000d800f0b5c64600b5574b9b7d002b17d0554a47
:1000e800137edbb2927d52b2002a13db514a137e93
:1000f800dbb2927dd20702d5db0700d582e04d4afc
:10010800137edbb2927d520701d55b074bd404bc4a
:100118009046f0bd5bb2002be8da464b5b8b0722ba
:100128001340e3d0444ce38500f09efb414b84220e
:100138001a752c230022e254636a002bd6d03e4a5b
:10014800906a9847d2e7bb68f35c0b8593680133e4
:100158009360936898460b7e23420bd0404509d99b
:100168004b682b40012beed163469b685b009b5b81
:100178000b85ebe7304b9a685b689a42bfd32e4bee
:1001880000221a755a602b4a01211175db68002b71
:10019800b5d0294a10699847b1e727490a6a896999
:1001a8005200535215e0244a2c23d35c002baed0c6
:1001b800214b1a6adb699a42a9d21e4a138d9bb257
:1001c800516807220a40012ae7d01b4a116a92693e
:1001d8005354194b1a6a01321a621a6adb699a4235
:1001e80000d094e7144b00222c215a54da61114aaa
:1001f800583111755b6a002b00d188e70e4a906a66
:10020800984784e70c4b1b7d002b00d177e70a4bfe
:100218009a685868074b1b7edb07abd58242a9d288
:10022800054b1e68034907259c461f001a00012438
:0c02380096e7c046001c00425002002067
:020000040000fa
:1002440010b5334b1c7ee4b21b7e1b074dd4304be0
:100254005b8b5b0710d504222e4bda602c4b5a8340
:100264001b7e5b0705d52a4b04219a6a1a7e0a4233
:10027400fbd1274b80221a76254b1b7e5b070cd5be
:10028400234b9a6a234b9b69ff2b06d8214b996910
:10029400214842549a6901329a611d4b1b7edb0747
:1002a40012d51c4b5a691b699a422dd2194b5a69b3
:1002b4001a49895c5a6901325a61154b1b7e9b07a6
:1002c40000d50224124b9962a3070dd5104b0222cc
:1002d4001a76104b00221a705a611a615b68002b5f
:1002e40002d00c4a9068984710bd094b08221a7630
:1002f400063a9a75074b00229a6101321a7001215d
:10030400074800f02dfba2e7014b01221a75dbe739
:10031400000c00429c02002000000020000100208c
:040324000044004150
:020000040000fa
:10032800800200201c00000000000000fc020020e9
:10033800040000000000000000030020040000008a
:100348000000000000000020000100000000000084
:100358000001002000010000000000009c020020b5
:100368001c000000000000005002002030000000c7
:1003780000000000f00200200c0000000000000057
:10038800d40200201a00000000000000b80200207b
:100398001b00000001000000616263646566676815
:1003a800696a6b6c6d6e6f7071727374757677783d
:1003b800797a000004030020040000000000000017
:1003c8000002002050000000000000000803002088
:1003d8000400000000000000000000000000000011
:020000040000fa
:1003e8001f4b00229a619a8c80218a439a841a00b2
:1003f8001023d1680b42fcd01a4b1b689b0e3f2b75
:100408002bd09b02802292001343154a936210233b
:10041800d1680b42fcd0124b02229a841a00102396
:10042800d1680b42fcd0104b04221a720f4b104ab1
:100438005a60f02212019a601a0053785bb2002bbe
:10044800fbdb0a4b0b4a5a800b4a5a80064b0b4a75
:100458001a62034b00221a627047203bd1e7c0465c
:10046800000800402460800000040040000c0040a8
:100478000007010015400000194000008800010035
:020000040000fa
:10048800f0b5c6461f4a204b00b50021934203d25f
:10049800197001339342fbd10b231c4a9c46083b3d
:1004a80098461368546819000026214311d0170094
:1004b80091680c3700290fd11a19002c03d01e702f
:1004c80001339342fbd13a00136854681900214361
:1004d800edd104bc9046f0bd6146c91a1d195118ea
:1004e800002c05d05a1c505c187013009542f9d1a5
:1004f800434623405a1e9341a4081c19a4003f19df
:100508003a00e1e700000020000000202803000076
:020000040000fa
:10051800f8b5184b9d7dedb21d750c0080235b006e
:10052800994200d91c0022000100134800f006fa85
:10053800124b1c6100225a615a690e4b1b7edb0765
:1005480011d5a2420fd20d4b0b4f0a4801265a690a
:10055800ba5c82625a6901325a615969027e324232
:1005680001d0a142f3d301231d43024b9d75200006
:10057800f8bdc046000c0042000100209c0200208b
:020000040000fa
:1005880000230e4a10b513600d4a13600d4a13601c
:100598000d4a13600d4a13600d4a5362136101330b
:1005a800936000f0eaf900f0e8f90a4c0a4b9c4223
:1005b80000d310bd08cc9847f8e7c04608030020d0
:1005c8000c02002008020020000200200402002083
:0c05d80010020020c4000000c800000059
:020000040000fa
:1005e400114b124a1a60124a9a81c02292025a602e
:1005f4001a00d369002bfcd10b4a136802210b4368
:100604001360d369002bfcd10a4b00229a61da6192
:100614001a622c215a545a621a605a609a601a75e6
:10062400da60da857047c046001c004204011040bd
:08063400b6f3ffff50020020a5
:020000040000fa
:10063c0010b5bff35f8f62b60f4bc12080001a5804
:10064c000e491140c02212020a431a5020221a608d
:10065c0004301a580a4c2240c02109040a431a508b
:10066c008022d2001a6004301a58224011431950cb
:10067c008022d2011a6010bd00e100e0ff00fffff4
:04068c00ffff00ff6d
:020000040000fa
:1006900010b50f4b0f4a5a601a00d369002bfcd1da
:1006a0000b4b0d4a1a601a00d369002bfcd10b4b7f
:1006b00000229a615a611a61da605a601a70044b1a
:1006c0000c329a7500220121054800f04bf910bd4b
:1006d000000c0042400202000a0102009c020020bd
:0406e0000044004191
:020000040000fa
:1006e400f8b5002000f0d8f800f020f90b4800f02d
:1006f4003df90b4d0b4f0c4e06e01b213000fff76c
:1007040009ff642000f07af801241a21280000f07f
:1007140093f83b7e2342f8d0efe7c0461027000051
:0c072400d4020020000c0042b8020020ab
:020000040000fa
:1007300010b5064c2378002b07d1054b002b02d0b7
:10074000044800e000bf0123237010bd8002002098
:100750000000000000000000044b10b5002b03d087
:100760000349044800e000bf10bdc046000000007f
:080770008402002000000000db
:020000040000fa
:1007780010b50a4b98470a4b9847fff781fe094b7b
:10078800ff229343084a9360084b9847084b9847c1
:10079800084b9847fff7a2fffee7c0468109000013
:1007a800810900000000000000ed00e0890500005c
:0807b800810900008109000025
:020000040000fa
:1007c0000e4bc02212031a60012250215a540131eb
:1007d0005a54013102205854013101305854033128
:1007e0005a5401315a543732353999540132023949
:1007f00099540232133199547047c0460044004165
:020000040000fa
:1008000070b50d4b5e681b68db0714d5c8235843d1
:10081000094b9b6800280ed00021074c013605e0eb
:10082000b51aeb18c9181300884204d9a2689a4275
:0c083000f6d89b1af6e770bd10e000e05f
:020000040000fa
:10083c0070b50d00084b9c7de4b21c75074b9b6991
:10084c008b4201d2054b9d692a00054900f074f8d2
:10085c00014b9c75280070bd000c00429c020020ce
:04086c000000002068
:020000040000fa
:10087000094b5b8b5b070dd0074b80221a76793ac8
:100880005a831b7e5b0705d5034b04211a8d1a7e04
:0c0890000a42fbd17047c046001c004229
:020000040000fa
:10089c0010b5094b06225a60fff78cfffff79efd3f
:1008ac0000f054f8fff7eefe00f02cf8fff794fe82
:0c08bc00fff7befe10bdc046004000412a
:020000040000fa
:1008c80010b5054b01221a73044b1b68002b02d08c
:1008d800034a1068984710bd00400041fc02002000
:0408e80000030020e9
:020000040000fa
:1008ec0010b5064b1b68064b9a6801329a601b6860
:1008fc00002b02d0024a5068984710bd10e000e06f
:04090c00f0020020d5
:020000040000fa
:10091000054a002313609360c7215160c1391160fb
:10092000024a93601360704710e000e0f00200207c
:020000040000fa
:10093000034b00229a601a6801210a431a6070472b
:0409400010e000e0e3
:020000040000fa
:10094400002310b59a4200d110bdcc5cc4540133cd
:02095400f8e7c2
:020000040000fa
:02095600fee7ba
:020000040000fa
:0c095800014b80225a60704700400041b3
:020000040000fa
:0c09640003695a4011405940016170477e
:020000040000fa
:0c0970000138014b5860704710e000e0b7
:020000040000fa
:02097c00fee794
:020000040000fa
:02097e00fee792
:020000040000fa
:020980007047be
:020000040000fa
:020982007047bc
:020000040000fa
:0200000400807a
:0440000077c700d8a6
:020000040000fa
:0200000400807a
:044004005c00ffff5e
:00000001FF
