:020000040000fa
:10000000f03f0020f1080000c70a0000c90a000004
:1000100000000000000000000000000000000000e0
:10002000000000000000000000000000c50a000001
:100030000000000000000000c50a0000390a0000ae
:10004000c50a0000c50a0000c50a0000c50a000074
:10005000c50a0000c50a0000f1050000c50a00003d
:10006000c50a0000c50a000045020000c50a0000dc
:10007000c50a0000c50a0000d9000000c50a00003a
:10008000c50a0000c50a0000c50a0000c50a000034
:10009000c50a00000000000000000000c50a0000c2
:1000a000c50a0000c50a0000c50a0000c50a000014
:0800b00000000000c50a000079
:020000040000fa
:1000b800f8b5c046f8bc08bc9e467047d108000099
:1000c800f8b5c046f8bc08bc9e467047a9080000b1
:020000040000fa
:1000d800f0b5c64600b5574b9b7d002b17d0554a47
:1000e800137edbb2927d52b2002a13db514a137e93
:1000f800dbb2927dd20702d5db0700d582e04d4afc
:10010800137edbb2927d520701d55b074bd404bc4a
:100118009046f0bd5bb2002be8da464b5b8b0722ba
:100128001340e3d0444ce38500f058fc414b842253
:100138001a752c230022e254636a002bd6d03e4a5b
:10014800906a9847d2e7bb68f35c0b8593680133e4
:100158009360936898460b7e23420bd0404509d99b
:100168004b682b40012beed163469b685b009b5b81
:100178000b85ebe7304b9a685b689a42bfd32e4bee
:1001880000221a755a602b4a01211175db68002b71
:10019800b5d0294a10699847b1e727490a6a896999
:1001a8005200535215e0244a2c23d35c002baed0c6
:1001b800214b1a6adb699a42a9d21e4a138d9bb257
:1001c800516807220a40012ae7d01b4a116a92693e
:1001d8005354194b1a6a01321a621a6adb699a4235
:1001e80000d094e7144b00222c215a54da61114aaa
:1001f800583111755b6a002b00d188e70e4a906a66
:10020800984784e70c4b1b7d002b00d177e70a4bfe
:100218009a685868074b1b7edb07abd58242a9d288
:10022800054b1e68034907259c461f001a00012438
:0c02380096e7c046001c00425002002067
:020000040000fa
:1002440010b5334b1c7ee4b21b7e1b074dd4304be0
:100254005b8b5b0710d504222e4bda602c4b5a8340
:100264001b7e5b0705d52a4b04219a6a1a7e0a4233
:10027400fbd1274b80221a76254b1b7e5b070cd5be
:10028400234b9a6a234b9b69ff2b06d8214b996910
:10029400214842549a6901329a611d4b1b7edb0747
:1002a40012d51c4b5a691b699a422dd2194b5a69b3
:1002b4001a49895c5a6901325a61154b1b7e9b07a6
:1002c40000d50224124b9962a3070dd5104b0222cc
:1002d4001a76104b00221a705a611a615b68002b5f
:1002e40002d00c4a9068984710bd094b08221a7630
:1002f400063a9a75074b00229a6101321a7001215d
:10030400074800f0d1fba2e7014b01221a75dbe795
:10031400000c0042fc02002000000020000100202c
:040324000044004150
:020000040000fa
:10032800e00200201c000000000000008002002005
:100338002000000000000000a002002020000000b3
:1003480000000000c00200202000000000000000a3
:100358000000002000010000000000000001002053
:100368000001000000000000fc0200201c0000004a
:1003780000000000500200203000000000000000d3
:10038800500300200c0000000000000018030020ab
:100398001b00000000000000340300201b000000c8
:1003a800010000006162636465666768696a6b6c76
:1003b8006d6e6f707172737475767778797a0000e4
:1003c8005c03002004000000000000000002002080
:1003d800500000000000000060030020040000003e
:1003e800000000000000000000000000222222227d
:020000040000fa
:1003f800f0b52e4e3f25745de4b2705506012c4dc4
:10040800ad192d7b002d05d0284e4e25765d002593
:10041800b6073bd0254e4e25032777550501244eb8
:100428007619023f3773234ead5b6d0533d5c91876
:100438000601204dad19696001011e4d495b090592
:100448002ed5d21805011b4949198a601949050199
:100458006a5a9205920fd3409bb249194b80134aae
:100468004021535c02252b435354516c536c9b041d
:100478009b0e08220a4013430125002b06d10b4a84
:100488001169012383400b4313610125074a3f2368
:10049800d4542800f0bd0601064dad196960cbe7bc
:1004a8000501044949198a60d0e7c046004800415f
:0804b800a002002080020020d8
:020000040000fa
:1004c0001f4b00229a619a8c80218a439a841a00d9
:1004d0001023d1680b42fcd01a4b1b689b0e3f2b9c
:1004e0002bd09b02802292001343154a9362102363
:1004f000d1680b42fcd0124b02229a841a001023be
:10050000d1680b42fcd0104b01221a720f4b104adb
:100510005a60f022d2019a601a0053785bb2002b25
:10052000fbdb0a4b0b4a5a800b4a5a80064b0b4a9c
:100530001a62034b00221a627047203bd1e7c04683
:10054000000800402460800000040040000c0040cf
:10055000000701001540000019400000880001005c
:020000040000fa
:10056000f0b5c6461f4a204b00b50021934203d286
:10057000197001339342fbd10b231c4a9c46083b64
:1005800098461368546819000026214311d01700bb
:1005900091680c3700290fd11a19002c03d01e7056
:1005a00001339342fbd13a00136854681900214388
:1005b000edd104bc9046f0bd6146c91a1d19511811
:1005c000002c05d05a1c505c187013009542f9d1cc
:1005d000434623405a1e9341a4081c19a4003f1906
:1005e0003a00e1e70000002000000020280300009e
:020000040000fa
:1005f00030b583b0002301931a4a118c0f330b409e
:100600003f21545ce4b253540f31525cd2b2019298
:10061000019a0220920708d512494e2288541901e6
:10062000114a5218002111730138019ad20709d5d5
:100630000c494e220120885419010b4a52180021fe
:10064000117301301901084a52185568002d03d062
:10065000054a53189968a847024a3f23d45403b067
:0c06600030bdc04600480041a002002050
:020000040000fa
:10066c0070b5124a00215160916011735161916112
:10067c0011770f480f4b58630f4c9c630f4c5c6108
:10068c003f2699550e4959640e490180012111707c
:10069c004d2403251d5599550b4e5e640b4e068259
:1006ac0011741d550a4a1a8070bdc046a002002064
:1006bc008002002000480041c0020020818181811d
:1006cc0000038000090800000004800009040000f9
:0406dc00020f000009
:020000040000fa
:1006e00070b500282fd0194b1a7d0023002a26d17f
:1006f000164b1860596001321a75154b1b7edb07cb
:1007000016d500291dd00023114c0726012507e02e
:10071000c25c22850133227e2a420ad0994208d93e
:1007200062683240012af3d15a00825a2285f1e7e9
:100730000023064a9360064b01229a750123180094
:1007400070bd0b00f5e70023f9e7c046500200201a
:04075000001c004247
:020000040000fa
:1007540000230e4a10b513600d4a13600d4a13604e
:100764000d4a13600d4a13600d4a5362136101333d
:10077400936000f0a9f900f0a7f90a4c0a4b9c42d7
:1007840000d310bd08cc9847f8e7c04660030020aa
:100794000c020020080200200002002004020020b5
:0c07a40010020020c4000000c80000008b
:020000040000fa
:1007b000114b124a1a60124a9a81c02292025a6060
:1007c0001a00d369002bfcd10b4a136802210b439a
:1007d0001360d369002bfcd10a4b00229a61da61c5
:1007e0001a622c215a545a621a605a609a601a7519
:1007f000da60da857047c046001c004204011040f0
:08080000b29dffff5002002031
:020000040000fa
:1008080010b50f4b0f4a5a601a00d369002bfcd160
:100818000b4b0d4a1a601a00d369002bfcd10b4b05
:1008280000229a615a611a61da605a601a70044ba0
:100838000c329a7500220121054800f033f910bde9
:10084800000c0042400202000a010200fc020020e3
:040858000044004117
:020000040000fa
:10085c0010b5bff35f8f62b60e4bc124a4001959bb
:10086c000d480140c0221204114319514021196056
:10087c00043419590140114319518021c9001960e0
:10088c000434195901400a431a518022d2011a60ca
:0c089c0010bdc04600e100e0ffff00ffbf
:020000040000fa
:1008a80010b5064c2378002b07d1054b002b02d03e
:1008b800044800e000bf0123237010bde0020020bf
:1008c8000000000000000000044b10b5002b03d00e
:1008d8000349044800e000bf10bdc0460000000006
:0808e800e40200200000000002
:020000040000fa
:1008f00010b50a4b98470a4b9847fff731fe094b52
:10090000ff229343084a9360084b9847084b984747
:10091000084b984700f010f8fee7c046cb0a0000ed
:10092000cb0a00000000000000ed00e055070000c9
:08093000cb0a0000cb0a000015
:020000040000fa
:1009380070b5002000f03af800f09cf8084800f084
:10094800b7f800220749002000f09ef8064d074c32
:100958001b232a0021000120fff74afdf8e7c046c3
:1009680010270000110a0000280c00423403002060
:020000040000fa
:100978000d4b8022d2021a60012250215a540131b3
:100988005a5401310220585401315a5403315a54ef
:1009980001315a5437323539995401320239995450
:0c09a800023213319954704700440041a2
:020000040000fa
:1009b40010b50a4b06225a60fff7dcfffff77efdf5
:1009c40000f06cf8fff71eff00f046f8fff74cfe4e
:1009d400fff7ecfefff740ff10bdc04600400041aa
:020000040000fa
:1009e400094b5b8b5b070dd0074b80221a76793a53
:1009f4005a831b7e5b0705d5034b04211a8d1a7e8f
:0c0a04000a42fbd17047c046001c0042b3
:020000040000fa
:100a100010b5012800d010bd054c1b23220005494c
:100a20000020fff7e9fc1b212000fff759fef2e749
:080a300018030020280c00420d
:020000040000fa
:100a380010b5064b1b68064b9a6801329a601b6812
:100a4800002b02d0024a5068984710bd10e000e021
:040a58005003002027
:020000040000fa
:100a5c00054a002313609360c7215160c1391160ae
:100a6c00024a93601360704710e000e050030020ce
:020000040000fa
:100a7c00034b00229a601a6801210a431a607047de
:040a8c0010e000e096
:020000040000fa
:100a900003010248c018416082607047a002002034
:020000040000fa
:0c0aa000014b80225a607047004000416a
:020000040000fa
:0c0aac0003695a40114059400161704735
:020000040000fa
:0c0ab8000138014b5860704710e000e06e
:020000040000fa
:020ac400fee74b
:020000040000fa
:020ac600fee749
:020000040000fa
:020ac800fee747
:020000040000fa
:020aca00704773
:020000040000fa
:020acc00704771
:020000040000fa
:0200000400807a
:0440000077c700d8a6
:020000040000fa
:0200000400807a
:044004005c00ffff5e
:00000001FF
