:020000040000fa
:10000000f83f0020b90700007f09000081090000c7
:1000100000000000000000000000000000000000e0
:100020000000000000000000000000007d0900004a
:1000300000000000000000007d0900000d09000024
:100040007d0900007d0900007d0900007d09000098
:100050007d090000e90800007d0900007d0900001d
:100060007d0900007d090000d90000007d09000025
:100070007d0900007d090000890200007d09000063
:100080007d0900007d0900007d0900007d09000058
:100090007d09000000000000000000007d09000054
:1000a0007d0900007d0900007d0900007d09000038
:0800b000000000007d090000c2
:020000040000fa
:1000b800f8b5c046f8bc08bc9e46704799070000d2
:1000c800f8b5c046f8bc08bc9e46704771070000ea
:020000040000fa
:1000d80010b5694b9b7d002b17d0674b5b8b9b073b
:1000e80014d5664b2022ff2199540132fd399954c9
:1000f800624a2023d35c5bb2013300d18be05f4ab4
:100108002023d35c062b00d19de010bd5a4b5b8b9e
:10011800db0707d5594b2022ff2199540132fd39bd
:100128009954e5e7544b5b8b5b0707d5534b20226b
:10013800ff2199540132fe399954d9e74f4a2023b7
:10014800d35c5bb2032b44d0042b0fd0022bcfd14e
:100158001369002b04d09088002100f0dbfac7e770
:10016800464b9888012100f0d5fac1e7434a9369c4
:10017800126993420cd0414a9168cc5c3e482821d0
:100188004454013393610200d369002bfcd1afe7db
:100198003a4b5b69002b0ed0384b9b885b000122e1
:1001a8001343354a5362d369002bfcd1334a2033b9
:1001b8000321d1549ce7304a5168c0239b020b436a
:1001c8005360d369002bfcd12c4a20330621d1542b
:1001d8008ee72a4a5369013bd2699a420dd0264ad2
:1001e800d369002bfcd1254ad36923482821415cd7
:1001f800d068c1540133d3617ae71f4a5168e023bc
:10020800db020b435360d369002bfcd11b4a20331c
:100218000621d154e3e720230021d154164a51681e
:10022800c0239b020b435360d369002bfcd1124bb4
:1002380083221a76114b5b6a002b00d165e70f4abf
:10024800906a984761e71300002220215a5401312f
:100258005a54094b83321a761900533a4b8b134080
:10026800102bfbd1054b5b6a002b00d14de7034aed
:10027800906a984749e7c046000c00428000002079
:020000040000fa
:10028800f0b5c64600b5574b9b7d002b17d0554a95
:10029800137edbb2927d52b2002a13db514a137ee1
:1002a800dbb2927dd20702d5db0700d582e04d4a4a
:1002b800137edbb2927d520701d55b074bd404bc99
:1002c8009046f0bd5bb2002be8da464b5b8b072209
:1002d8001340e3d0444ce38500f0c0fa414b84223c
:1002e8001a752c230022e254636a002bd6d03e4aaa
:1002f800906a9847d2e7bb68f35c0b859368013333
:100308009360936898460b7e23420bd0404509d9e9
:100318004b682b40012beed163469b685b009b5bcf
:100328000b85ebe7304b9a685b689a42bfd32e4b3c
:1003380000221a755a602b4a01211175db68002bbf
:10034800b5d0294a10699847b1e727490a6a8969e7
:100358005200535215e0244a2c23d35c002baed014
:10036800214b1a6adb699a42a9d21e4a138d9bb2a5
:10037800516807220a40012ae7d01b4a116a92698c
:100388005354194b1a6a01321a621a6adb699a4283
:1003980000d094e7144b00222c215a54da61114af8
:1003a800583111755b6a002b00d188e70e4a906ab4
:1003b800984784e70c4b1b7d002b00d177e70a4b4d
:1003c8009a685868074b1b7edb07abd58242a9d2d7
:1003d800054b1e68034907259c461f001a00012487
:0c03e80096e7c046001c004250000020b8
:020000040000fa
:1003f4001f4b00229a619a8c80218a439a841a00a6
:100404001023d1680b42fcd01a4b1b689b0e3f2b68
:100414002bd09b02802292001343154a936210232f
:10042400d1680b42fcd0124b02229a841a0010238a
:10043400d1680b42fcd0104b02221a720f4b104aa7
:100444005a60f022d2019a601a0053785bb2002bf2
:10045400fbdb0a4b0b4a5a800b4a5a80064b0b4a69
:100464001a62034b00221a627047203bd1e7c04650
:10047400000800402460800000040040000c00409c
:100484000007010015400000194000008800010029
:020000040000fa
:10049400f0b5c6461f4a204b00b50021934203d253
:1004a400197001339342fbd10b231c4a9c46083b31
:1004b40098461368546819000026214311d0170088
:1004c40091680c3700290fd11a19002c03d01e7023
:1004d40001339342fbd13a00136854681900214355
:1004e400edd104bc9046f0bd6146c91a1d195118de
:1004f400002c05d05a1c505c187013009542f9d199
:10050400434623405a1e9341a4081c19a4003f19d2
:100514003a00e1e70000002000000020240500006c
:020000040000fa
:10052400ac0000201c00000000000000e0000020df
:100534000400000000000000e400002004000000ab
:100544000000000050000020300000000000000007
:10055400c80000200c00000000000000d4000020af
:100564000b000000010000003132333435363738d7
:1005740039300000800000202c0000000000000042
:10058400e80000200400000000000000000000203b
:100594005000000000000000ec00002004000000f7
:1005a40000000000000000000000000022222222bf
:020000040000fa
:1005b400144b01221a601a00d369002bfcd1114b91
:1005c400802252005a601a00d369002bfcd10d4bd3
:1005d4000122da600c4a1a601a00d369002bfcd19c
:1005e400084b10225a831a00d369002bfcd1074b05
:1005f400002221215a5401395a54024b83329a75ec
:100604007047c046000c0042160010008000002015
:020000040000fa
:1006140000230e4a10b513600d4a13600d4a13608f
:100624000d4a13600d4a13600d4a5362136101337e
:10063400936000f0a5f900f0a3f90a4c0a4b9c4220
:1006440000d310bd08cc9847f8e7c046ec00002062
:100654000c000020080000200000002004000020fe
:0c06640010000020c4000000c8000000ce
:020000040000fa
:10067000114b124a1a60124a9a81c02292025a60a1
:100680001a00d369002bfcd10b4a136802210b43db
:100690001360d369002bfcd10a4b00229a61da6106
:1006a0001a622c215a545a621a605a609a601a755a
:1006b000da60da857047c046001c00420401204021
:0806c000b29dffff5000002075
:020000040000fa
:1006c80010b5bff35f8f62b60f4bc12080001a5878
:1006d8000e491140c02212020a431a5020221a6001
:1006e80004301a580a4c2240c02109040a431a50ff
:1006f8008022d2001a6004301a582240114319503f
:100708008022d2011a6010bd00e100e0ff00ffff67
:04071800ffff00ffe0
:020000040000fa
:10071c0010b5114b00229a61da61104b83321a76b4
:10072c005a680f4c22405a601a00d369002bfcd136
:10073c0000290cd0084a20330324d4544000084329
:10074c00064b58621a00d369002bfcd110bd024a2b
:10075c0020230424d454f1e780000020000c004234
:04076c00fffffbff91
:020000040000fa
:1007700010b5064c2378002b07d1054b002b02d077
:10078000044800e000bf0123237010bdac0000202e
:100790000000000000000000044b10b5002b03d047
:1007a0000349044800e000bf10bdc046000000003f
:0807b000b00000200000000071
:020000040000fa
:1007b80010b50a4b98470a4b9847fff767fe094b55
:1007c800ff229343084a9360084b9847084b984781
:1007d800084b984700f06ef8fee7c0468309000012
:1007e800830900000000000000ed00e0150600008d
:0807f8008309000083090000e1
:020000040000fa
:1008000010b50b4c2023e45c0023002c01d0180011
:1008100010bd074b9880dc605c6199601a619c7028
:100820001c7021229c540021fff778ff0123eee782
:040830008000002024
:020000040000fa
:100834000a4b01224c215a5401315a5403315a545f
:1008440001315a5405315a54213220395a54023153
:100854005a541932353999547047c04600440041fe
:020000040000fa
:10086400094b5b8b5b070dd0074b80221a76793ad4
:100874005a831b7e5b0705d5034b04211a8d1a7e10
:0c0884000a42fbd17047c046001c004235
:020000040000fa
:1008900010b5094b06225a60fff7ccfffff7aafdff
:1008a00000f060f8fff786fe00f042f8fff7e0fe88
:0c08b000fff70aff10bdc04600400041e9
:020000040000fa
:1008bc0010b50020fff7e6ff00f034f8054800f013
:1008cc0051f800f03ff8044c0b2221004020fff7b8
:0c08dc0091fff9e710270000d400002075
:020000040000fa
:1008e80010b5054b01221a73044b1b68002b02d06c
:1008f800034a1068984710bd00400041e0000020fe
:04090800e4000020e7
:020000040000fa
:10090c0010b5064b1b68064b9a6801329a601b683f
:10091c00002b02d0024a5068984710bd10e000e04e
:04092c00c8000020df
:020000040000fa
:10093000054a002313609360632151605d391160a3
:10094000024a93601360704710e000e0c800002086
:020000040000fa
:10095000034b00229a601a6801210a431a6070470b
:0409600010e000e0c3
:020000040000fa
:0c096400014b80225a60704700400041a7
:020000040000fa
:0c0970000138014b5860704710e000e0b7
:020000040000fa
:02097c00fee794
:020000040000fa
:02097e00fee792
:020000040000fa
:02098000fee790
:020000040000fa
:020982007047bc
:020000040000fa
:020984007047ba
:020000040000fa
:0200000400807a
:0440000077c700d8a6
:020000040000fa
:0200000400807a
:044004005c00ffff5e
:00000001FF
