:020000040000fa
:10000000f03f0020cd080000870a0000890a0000a8
:1000100000000000000000000000000000000000e0
:10002000000000000000000000000000850a000041
:100030000000000000000000850a0000350a0000f2
:10004000850a0000850a0000850a0000850a000074
:10005000850a0000ed090000850a0000850a0000fd
:10006000850a0000850a0000d9000000850a00000a
:10007000850a0000850a000045020000850a00008c
:10008000850a0000850a0000850a0000850a000034
:10009000850a00000000000000000000850a000042
:1000a000850a0000850a0000850a0000850a000014
:0800b00000000000850a0000b9
:020000040000fa
:1000b800f8b5c046f8bc08bc9e467047ad080000bd
:1000c800f8b5c046f8bc08bc9e46704785080000d5
:020000040000fa
:1000d80010b5564b9b7d002b53d0544a51680723cb
:1000e8000b40127e52075bd5504a906a50494a69c4
:1000f800c9688a4254d2002b44d14d4b5968885460
:1001080001325a61494b1b7edb0718d5474b012248
:100118001a75474a93699268934258d2444a1168bb
:10012800c85c4249886201339361414b9a699b6874
:100138009a4262d03e4b5a69db689a4269d03b4b7f
:100148001b7e9b0716d53b4b1b78002b19d0384bd1
:100158005a69db689a4211d1354b00221a77334924
:100168000720087533490a701b6a002b09d0304aea
:10017800506a98472f4b1b78002b02d02b4b02223a
:100188009a7510bd2a4b51005c68085301325a61b8
:10019800264b1b7edb07d2d5244b01221a7508e0bb
:1001a800224a127ed207cad5204a01211175002b96
:1001b800afd01f4a93699268934213d21c4a5900e0
:1001c8001068085a1949886201339361ade7184be2
:1001d8001b69002b23d0154aff219162013b144a69
:1001e8001361a2e7124b1b69002b18d00f4a124962
:1001f8009162013b0e4a136197e70d4b1b69002b77
:1002080098d10c4b01221a70084b1b7e9b079ed479
:10021800b4e7064b01229a7503321a758fe7044b2f
:100228009a699b689a4200d084e7eae7000c00428a
:0c02380080000020e4000020ffff000018
:020000040000fa
:10024400f0b5c64600b5574b9b7d002b17d0554ad9
:10025400137edbb2927d52b2002a13db514a137e25
:10026400dbb2927dd20702d5db0700d582e04d4a8e
:10027400137edbb2927d520701d55b074bd404bcdd
:100284009046f0bd5bb2002be8da464b5b8b07224d
:100294001340e3d0444ce38500f07afb414b8422c5
:1002a4001a752c230022e254636a002bd6d03e4aee
:1002b400906a9847d2e7bb68f35c0b859368013377
:1002c4009360936898460b7e23420bd0404509d92e
:1002d4004b682b40012beed163469b685b009b5b14
:1002e4000b85ebe7304b9a685b689a42bfd32e4b81
:1002f40000221a755a602b4a01211175db68002b04
:10030400b5d0294a10699847b1e727490a6a89692b
:100314005200535215e0244a2c23d35c002baed058
:10032400214b1a6adb699a42a9d21e4a138d9bb2e9
:10033400516807220a40012ae7d01b4a116a9269d0
:100344005354194b1a6a01321a621a6adb699a42c7
:1003540000d094e7144b00222c215a54da61114a3c
:10036400583111755b6a002b00d188e70e4a906af8
:10037400984784e70c4b1b7d002b00d177e70a4b91
:100384009a685868074b1b7edb07abd58242a9d21b
:10039400054b1e68034907259c461f001a000124cb
:0c03a40096e7c046001c004250000020fc
:020000040000fa
:1003b00070b5060000294fd000284dd04648007f78
:1003c000002800d085e0454c656807242c40012cae
:1003d00049d0414806604260002444618461046160
:1003e0003000441ea041404201403b488160501e05
:1003f000824152421a403848c2600124047737488b
:10040000007e400705d5354c0420a56a257e0542af
:10041000fbd13248448b04252c434483047e802541
:100420002c4304768a4202d9501a2b4c20612b4867
:10043000406840072bd1284a92698a421cd2307802
:1004400026498862013224498a61002b3cd0234b23
:1004500004229a7501203de00020002b3ad0002aaa
:10046000acd1002036e0002901d0cc0732d4002bdb
:10047000afd0dc07add52de0174a1269002ae4d0d1
:100480001649ff208862013a13490a61dde74908ed
:10049000114881600469640804615208c26082697d
:1004a000914208d93188c905c90d0c4881620132d1
:1004b00009498a61c9e7002cc7d0084a08499162f6
:1004c000013c054a1461c0e7044b01229a750120e2
:1004d00000e0002070bdc04680000020000c0042fb
:0404e000ff01000018
:020000040000fa
:1004e400ac0000201c00000000000000d40000202c
:1004f4000400000000000000d800002004000000f8
:1005040000000000e40000200100000000000000e2
:10051400800000202c00000000000000500000209b
:100524003000000000000000c80000200c000000a3
:1005340000000000e50000200100000000000000b1
:10054400e60000200100000001000000410000005e
:10055400dc00002004000000000000000000002077
:100564005000000000000000e00000200400000033
:1005740000000000000000000000000022222222ef
:020000040000fa
:100584001d4b00229a619a8c80218a439a841a0016
:100594001023d1680b42fcd0184b1b689b0e3f2bd9
:1005a40028d09b02802292001343134a93621023a3
:1005b400d1680b42fcd0104b02229a841a001023fb
:1005c400d1680b42fcd00e4b0e4a5a60c0229201f5
:1005d4009a601a0053785bb2002bfbdb084b0a4a83
:1005e4005a800a4a5a800a4b0a4a1a62024b00226b
:1005f4001a627047203bd4e7000800402460800062
:10060400000c0040000701001540000019400000e4
:08061400000400408800010011
:020000040000fa
:10061c00f0b5c6461f4a204b00b50021934203d2c9
:10062c00197001339342fbd10b231c4a9c46083ba7
:10063c0098461368546819000026214311d01700fe
:10064c0091680c3700290fd11a19002c03d01e7099
:10065c0001339342fbd13a001368546819002143cb
:10066c00edd104bc9046f0bd6146c91a1d19511854
:10067c00002c05d05a1c505c187013009542f9d10f
:10068c00434623405a1e9341a4081c19a4003f1949
:10069c003a00e1e70000002000000020e404000024
:020000040000fa
:1006ac0070b500282fd0194b1a7d0023002a26d1b3
:1006bc00164b1860596001321a75154b1b7edb07ff
:1006cc0016d500291dd00023114c0726012507e063
:1006dc00c25c22850133227e2a420ad0994208d973
:1006ec0062683240012af3d15a00825a2285f1e71e
:1006fc000023064a9360064b01229a7501231800c9
:10070c0070bd0b00f5e70023f9e7c0465000002050
:04071c00001c00427b
:020000040000fa
:10072000f8b5002000f04cf900f096f90f4800f001
:10073000a3f90f4d8026f602370002e080239b04c8
:100740006b616f610b4c0123220001210a48fff706
:100750002ffe01212000fff7a9ffae612378422b75
:10076000ecd180239b04ab61ebe7c046102700006f
:0c07700000440041e5000020e6000020ed
:020000040000fa
:10077c0000230e4a10b513600d4a13600d4a136026
:10078c000d4a13600d4a13600d4a53621361013315
:10079c00936000f075f900f073f90a4c0a4b9c4217
:1007ac0000d310bd08cc9847f8e7c046e000002005
:1007bc000c00002008000020000000200400002095
:0c07cc0010000020c4000000c800000065
:020000040000fa
:1007d800114b124a1a60124a9a81c02292025a6038
:1007e8001a00d369002bfcd10b4a136802210b4372
:1007f8001360d369002bfcd10a4b00229a61da619d
:100808001a622c215a545a621a605a609a601a75f0
:10081800da60da857047c046001c004204012040b7
:08082800add8ffff50000020d5
:020000040000fa
:1008300010b5bff35f8f62b60f4bc12080001a580e
:100840000e491140c02212020a431a5020221a6097
:1008500004301a580a4c2240c02109040a431a5095
:100860008022d2001a6004301a58224011431950d5
:100870008022d2011a6010bd00e100e0ff00fffffe
:04088000ffff00ff77
:020000040000fa
:1008840010b5064c2378002b07d1054b002b02d062
:10089400044800e000bf0123237010bdac00002019
:1008a4000000000000000000044b10b5002b03d032
:1008b4000349044800e000bf10bdc046000000002a
:0808c400b0000020000000005c
:020000040000fa
:1008cc0010b50a4b98470a4b9847fff7a1fe094b06
:1008dc00ff229343084a9360084b9847084b98476c
:1008ec00084b9847fff716fffee7c0468b0a00003f
:1008fc008b0a00000000000000ed00e07d07000006
:08090c008b0a00008b0a0000b9
:020000040000fa
:100914000f4b912292041a60012250215a54013142
:100924005a544f395220195401301a5402320330a8
:100934001a540330195436313738585401310238b7
:10094400585402315a543932002199547047c046e0
:04095400004400411a
:020000040000fa
:100958000b4b00221a621a779a60da60094b8022e0
:1009680092025a601a00d369002bfcd1054b002271
:100978001a73054a1a601a00d369002bfcd1704714
:0c09880080000020000c00420e00300037
:020000040000fa
:10099400094b5b8b5b070dd0074b80221a76793aa3
:1009a4005a831b7e5b0705d5034b04211a8d1a7edf
:0c09b4000a42fbd17047c046001c004204
:020000040000fa
:1009c00010b5094b06225a60fff7a4fffff7dafdc6
:1009d00000f04cf8fff7c0ff00f01af8fff7fcfe3c
:0c09e000fff726ff10bdc046004000419c
:020000040000fa
:1009ec0010b5054b01221a73044b1b68002b02d067
:1009fc00034a1068984710bd00400041d400002005
:040a0c00d8000020ee
:020000040000fa
:100a1000054a002313609360044951600621116068
:100a2000034a93601360704710e000e0e7030000a2
:040a3000c8000020da
:020000040000fa
:100a340010b5064b1b68064b9a6801329a601b6816
:100a4400002b02d0024a5068984710bd10e000e025
:040a5400c8000020b6
:020000040000fa
:100a5800034b00229a601a6801210a431a60704702
:040a680010e000e0ba
:020000040000fa
:0c0a6c00014b80225a607047004000419e
:020000040000fa
:0c0a78000138014b5860704710e000e0ae
:020000040000fa
:020a8400fee78b
:020000040000fa
:020a8600fee789
:020000040000fa
:020a8800fee787
:020000040000fa
:020a8a007047b3
:020000040000fa
:020a8c007047b1
:020000040000fa
:0200000400807a
:0440000077c700d8a6
:020000040000fa
:0200000400807a
:044004005c00ffff5e
:00000001FF
