:020000040000fa
:10000000f03f0020950900004b0b00004d0b000055
:1000100000000000000000000000000000000000e0
:10002000000000000000000000000000490b00007c
:100030000000000000000000490b0000d90a000089
:10004000490b0000490b0000490b0000490b000060
:10005000490b0000b50a000089060000490b0000aa
:10006000490b0000490b0000d9000000490b0000bb
:10007000490b0000490b000045020000490b00003d
:10008000490b0000490b0000490b0000490b000020
:10009000490b00000000000000000000490b0000b8
:1000a000490b0000490b0000490b0000490b000000
:0800b00000000000490b0000f4
:020000040000fa
:1000b800f8b5c046f8bc08bc9e46704775090000f4
:1000c800f8b5c046f8bc08bc9e4670474d0900000c
:020000040000fa
:1000d80010b5564b9b7d002b53d0544a51680723cb
:1000e8000b40127e52075bd5504a906a50494a69c4
:1000f800c9688a4254d2002b44d14d4b5968885460
:1001080001325a61494b1b7edb0718d5474b012248
:100118001a75474a93699268934258d2444a1168bb
:10012800c85c4249886201339361414b9a699b6874
:100138009a4262d03e4b5a69db689a4269d03b4b7f
:100148001b7e9b0716d53b4b1b78002b19d0384bd1
:100158005a69db689a4211d1354b00221a77334924
:100168000720087533490a701b6a002b09d0304aea
:10017800506a98472f4b1b78002b02d02b4b02223a
:100188009a7510bd2a4b51005c68085301325a61b8
:10019800264b1b7edb07d2d5244b01221a7508e0bb
:1001a800224a127ed207cad5204a01211175002b96
:1001b800afd01f4a93699268934213d21c4a5900e0
:1001c8001068085a1949886201339361ade7184be2
:1001d8001b69002b23d0154aff219162013b144a69
:1001e8001361a2e7124b1b69002b18d00f4a124962
:1001f8009162013b0e4a136197e70d4b1b69002b77
:1002080098d10c4b01221a70084b1b7e9b079ed479
:10021800b4e7064b01229a7503321a758fe7044b2f
:100228009a699b689a4200d084e7eae7000c00428a
:0c02380080000020cf000020ffff00002d
:020000040000fa
:10024400f0b5c64600b5574b9b7d002b17d0554ad9
:10025400137edbb2927d52b2002a13db514a137e25
:10026400dbb2927dd20702d5db0700d582e04d4a8e
:10027400137edbb2927d520701d55b074bd404bcdd
:100284009046f0bd5bb2002be8da464b5b8b07224d
:100294001340e3d0444ce38500f0f4fb414b84224b
:1002a4001a752c230022e254636a002bd6d03e4aee
:1002b400906a9847d2e7bb68f35c0b859368013377
:1002c4009360936898460b7e23420bd0404509d92e
:1002d4004b682b40012beed163469b685b009b5b14
:1002e4000b85ebe7304b9a685b689a42bfd32e4b81
:1002f40000221a755a602b4a01211175db68002b04
:10030400b5d0294a10699847b1e727490a6a89692b
:100314005200535215e0244a2c23d35c002baed058
:10032400214b1a6adb699a42a9d21e4a138d9bb2e9
:10033400516807220a40012ae7d01b4a116a9269d0
:100344005354194b1a6a01321a621a6adb699a42c7
:1003540000d094e7144b00222c215a54da61114a3c
:10036400583111755b6a002b00d188e70e4a906af8
:10037400984784e70c4b1b7d002b00d177e70a4b91
:100384009a685868074b1b7edb07abd58242a9d21b
:10039400054b1e68034907259c461f001a000124cb
:0c03a40096e7c046001c004250000020fc
:020000040000fa
:1003b000300100201c00000000000000d0000020e0
:1003c0002000000000000000f000002020000000dd
:1003d00000000000100100202000000000000000cc
:1003e00074010020040000000000000078010020db
:1003f0000400000000000000cf0000200100000009
:1004000000000000800000202c0000000000000020
:1004100050000020300000000000000068010020b3
:100420000c00000000000000ac00002023000000d1
:10043000000000004c0100201b0000000100000033
:100440004142434445464748494a4b4c4d4e4f5024
:100450005152535455565758595a00007c010020a8
:100460000400000000000000000000205000000018
:1004700000000000800100200400000000000000d7
:10048000000000000000000022222222222222225c
:020000040000fa
:10049000f0b52e4e3f25745de4b2705506012c4d2b
:1004a000ad192d7b002d05d0284e4e25765d0025fb
:1004b000b6073bd0254e4e25032777550501244e20
:1004c0007619023f3773234ead5b6d0533d5c918de
:1004d0000601204dad19696001011e4d495b0905fa
:1004e0002ed5d21805011b4949198a601949050101
:1004f0006a5a9205920fd3409bb249194b80134a16
:100500004021535c02252b435354516c536c9b0484
:100510009b0e08220a4013430125002b06d10b4aeb
:100520001169012383400b4313610125074a3f23cf
:10053000d4542800f0bd0601064dad196960cbe723
:100540000501044949198a60d0e7c04600480041c6
:08055000f0000020d0000020a3
:020000040000fa
:100558001f4b00229a619a8c80218a439a841a0040
:100568001023d1680b42fcd01a4b1b689b0e3f2b03
:100578002bd09b02802292001343154a93621023ca
:10058800d1680b42fcd0124b02229a841a00102325
:10059800d1680b42fcd0104b02221a720f4b104a42
:1005a8005a60f022d2019a601a0053785bb2002b8d
:1005b800fbdb0a4b0b4a5a800b4a5a80064b0b4a04
:1005c8001a62034b00221a627047203bd1e7c046eb
:1005d800000800402460800000040040000c004037
:1005e80000070100154000001940000088000100c4
:020000040000fa
:1005f800f0b5c6461f4a204b00b50021934203d2ee
:10060800197001339342fbd10b231c4a9c46083bcb
:1006180098461368546819000026214311d0170022
:1006280091680c3700290fd11a19002c03d01e70bd
:1006380001339342fbd13a001368546819002143ef
:10064800edd104bc9046f0bd6146c91a1d19511878
:10065800002c05d05a1c505c187013009542f9d133
:10066800434623405a1e9341a4081c19a4003f196d
:100678003a00e1e70000002000000020b00300007d
:020000040000fa
:1006880030b583b0002301931a4a118c0f330b4005
:100698003f21545ce4b253540f31525cd2b2019200
:1006a800019a0220920708d512494e22885419014e
:1006b800114a5218002111730138019ad20709d53d
:1006c8000c494e220120885419010b4a5218002166
:1006d800117301301901084a52185568002d03d0ca
:1006e800054a53189968a847024a3f23d45403b0cf
:0c06f80030bdc04600480041f00000206a
:020000040000fa
:1007040070b5124a00215160916011735161916179
:1007140011770f480f4b58630f4c9c630f4c5c616f
:100724003f2699550e4959640e49018001211170e3
:100734004d2403251d5599550b4e5e640b4e0682c0
:1007440011741d550a4a1a8070bdc046f00000207d
:10075400d0000020004800411001002081818181e7
:100764000004800009040000000380000908000060
:04077400020f000070
:020000040000fa
:1007780070b500282fd0194b1a7d0023002a26d1e6
:10078800164b1860596001321a75154b1b7edb0732
:1007980016d500291dd00023114c0726012507e096
:1007a800c25c22850133227e2a420ad0994208d9a6
:1007b80062683240012af3d15a00825a2285f1e751
:1007c8000023064a9360064b01229a7501231800fc
:1007d80070bd0b00f5e70023f9e7c0465000002084
:0407e800001c0042af
:020000040000fa
:1007ec0010b5bff35f8f62b6124bc12080001a5850
:1007fc0011491140c02212020a431a5020221a60d9
:10080c0019580e4c2140c02212041143195040219a
:10081c001960043019582140114319508021c90026
:10082c0019600430195821400a431a508022d20111
:10083c001a6010bd00e100e0ff00ffffffff00ffaa
:020000040000fa
:10084c0000230e4a10b513600d4a13600d4a136055
:10085c000d4a13600d4a13600d4a53621361013344
:10086c00936000f06ff900f06df90a4c0a4b9c4252
:10087c0000d310bd08cc9847f8e7c0468001002093
:10088c000c000020080000200000002004000020c4
:0c089c0010000020c4000000c800000094
:020000040000fa
:1008a800114b124a1a60124a9a81c02292025a6067
:1008b8001a00d369002bfcd10b4a136802210b43a1
:1008c8001360d369002bfcd10a4b00229a61da61cc
:1008d8001a622c215a545a621a605a609a601a7520
:1008e800da60da857047c046001c004204011040f7
:0808f800b29dffff500000203b
:020000040000fa
:1009000070b5002000f0a8f800f008f90b4800f0de
:1009100015f90b4d0b4e0c4c1b232a003100002007
:10092000fff7b6fd2323220029000120fff7b0fdc9
:1009300023212000fff720ffeee7c046102700002c
:0c094000280c00424c010020ac000020fc
:020000040000fa
:10094c0010b5064c2378002b07d1054b002b02d099
:10095c00044800e000bf0123237010bd30010020cb
:10096c000000000000000000044b10b5002b03d069
:10097c000349044800e000bf10bdc0460000000061
:08098c0034010020000000000e
:020000040000fa
:1009940010b50a4b98470a4b9847fff72bfe094bb3
:1009a400ff229343084a9360084b9847084b9847a3
:1009b400084b9847fff7a2fffee7c0464f0b000025
:1009c4004f0b00000000000000ed00e04d080000a7
:0809d4004f0b00004f0b000067
:020000040000fa
:1009dc000e4bc02212031a60012250215a540131cd
:1009ec005a5401310220585401310130585403310a
:1009fc005a5401315a54373235399954013202392b
:100a0c0099540232133199547047c0460044004146
:020000040000fa
:100a1c000b4b00221a621a779a60da60094b80221b
:100a2c0092025a601a00d369002bfcd1054b0122ab
:100a3c001a73054a1a601a00d369002bfcd170474f
:0c0a4c0080000020000c00420e00300072
:020000040000fa
:100a580010b50a4b06225a60fff7bcfffff778fd76
:100a680000f062f8fff7d6ff00f044f8fff746fe03
:100a7800fff716fffff7b6fe10bdc0460040004165
:020000040000fa
:100a8800094b5b8b5b070dd0074b80221a76793aae
:100a98005a831b7e5b0705d5034b04211a8d1a7eea
:0c0aa8000a42fbd17047c046001c00420f
:020000040000fa
:100ab40010b5054b01221a73044b1b68002b02d09e
:100ac400034a1068984710bd00400041740100209b
:040ad4007801002085
:020000040000fa
:100ad80010b5064b1b68064b9a6801329a601b6872
:100ae800002b02d0024a5068984710bd10e000e081
:040af8006801002071
:020000040000fa
:100afc00054a002313609360632151605d391160d6
:100b0c00024a93601360704710e000e06801002017
:020000040000fa
:100b1c00034b00229a601a6801210a431a6070473d
:040b2c0010e000e0f5
:020000040000fa
:0c0b3000014b80225a60704700400041d9
:020000040000fa
:0c0b3c000138014b5860704710e000e0e9
:020000040000fa
:020b4800fee7c6
:020000040000fa
:020b4a00fee7c4
:020000040000fa
:020b4c00fee7c2
:020000040000fa
:020b4e007047ee
:020000040000fa
:020b50007047ec
:020000040000fa
:0200000400807a
:0440000077c700d8a6
:020000040000fa
:0200000400807a
:044004005c00ffff5e
:00000001FF
